{
  "contractName": "KyoVesting",
  "abi": [
    {
      "inputs": [
        {
          "internalType": "address",
          "name": "_kyo",
          "type": "address"
        },
        {
          "internalType": "uint256",
          "name": "_interval",
          "type": "uint256"
        }
      ],
      "stateMutability": "nonpayable",
      "type": "constructor"
    },
    {
      "anonymous": false,
      "inputs": [
        {
          "indexed": true,
          "internalType": "address",
          "name": "owner",
          "type": "address"
        },
        {
          "indexed": true,
          "internalType": "address",
          "name": "spender",
          "type": "address"
        },
        {
          "indexed": false,
          "internalType": "uint256",
          "name": "value",
          "type": "uint256"
        }
      ],
      "name": "Approval",
      "type": "event"
    },
    {
      "anonymous": false,
      "inputs": [
        {
          "indexed": true,
          "internalType": "address",
          "name": "previousOwner",
          "type": "address"
        },
        {
          "indexed": true,
          "internalType": "address",
          "name": "newOwner",
          "type": "address"
        }
      ],
      "name": "OwnershipTransferred",
      "type": "event"
    },
    {
      "anonymous": false,
      "inputs": [
        {
          "indexed": true,
          "internalType": "address",
          "name": "from",
          "type": "address"
        },
        {
          "indexed": true,
          "internalType": "address",
          "name": "to",
          "type": "address"
        },
        {
          "indexed": false,
          "internalType": "uint256",
          "name": "value",
          "type": "uint256"
        }
      ],
      "name": "Transfer",
      "type": "event"
    },
    {
      "inputs": [
        {
          "internalType": "address",
          "name": "_employee",
          "type": "address"
        },
        {
          "internalType": "uint256",
          "name": "_amount",
          "type": "uint256"
        },
        {
          "internalType": "uint256",
          "name": "_startTime",
          "type": "uint256"
        }
      ],
      "name": "add_employee",
      "outputs": [],
      "stateMutability": "nonpayable",
      "type": "function"
    },
    {
      "inputs": [
        {
          "internalType": "address",
          "name": "_partner",
          "type": "address"
        },
        {
          "internalType": "uint256",
          "name": "_amount",
          "type": "uint256"
        },
        {
          "internalType": "uint256",
          "name": "_startTime",
          "type": "uint256"
        }
      ],
      "name": "add_partner",
      "outputs": [],
      "stateMutability": "nonpayable",
      "type": "function"
    },
    {
      "inputs": [
        {
          "internalType": "address",
          "name": "owner",
          "type": "address"
        },
        {
          "internalType": "address",
          "name": "spender",
          "type": "address"
        }
      ],
      "name": "allowance",
      "outputs": [
        {
          "internalType": "uint256",
          "name": "",
          "type": "uint256"
        }
      ],
      "stateMutability": "view",
      "type": "function"
    },
    {
      "inputs": [
        {
          "internalType": "address",
          "name": "spender",
          "type": "address"
        },
        {
          "internalType": "uint256",
          "name": "amount",
          "type": "uint256"
        }
      ],
      "name": "approve",
      "outputs": [
        {
          "internalType": "bool",
          "name": "",
          "type": "bool"
        }
      ],
      "stateMutability": "nonpayable",
      "type": "function"
    },
    {
      "inputs": [
        {
          "internalType": "address",
          "name": "account",
          "type": "address"
        }
      ],
      "name": "balanceOf",
      "outputs": [
        {
          "internalType": "uint256",
          "name": "",
          "type": "uint256"
        }
      ],
      "stateMutability": "view",
      "type": "function"
    },
    {
      "inputs": [
        {
          "internalType": "address",
          "name": "",
          "type": "address"
        }
      ],
      "name": "completed",
      "outputs": [
        {
          "internalType": "bool",
          "name": "",
          "type": "bool"
        }
      ],
      "stateMutability": "view",
      "type": "function"
    },
    {
      "inputs": [],
      "name": "current_time",
      "outputs": [
        {
          "internalType": "uint256",
          "name": "",
          "type": "uint256"
        }
      ],
      "stateMutability": "view",
      "type": "function"
    },
    {
      "inputs": [
        {
          "internalType": "address",
          "name": "",
          "type": "address"
        }
      ],
      "name": "eighth_payment",
      "outputs": [
        {
          "internalType": "uint256",
          "name": "",
          "type": "uint256"
        }
      ],
      "stateMutability": "view",
      "type": "function"
    },
    {
      "inputs": [
        {
          "internalType": "address",
          "name": "",
          "type": "address"
        }
      ],
      "name": "eighth_schedule",
      "outputs": [
        {
          "internalType": "uint256",
          "name": "",
          "type": "uint256"
        }
      ],
      "stateMutability": "view",
      "type": "function"
    },
    {
      "inputs": [
        {
          "internalType": "address",
          "name": "",
          "type": "address"
        }
      ],
      "name": "eleventh_payment",
      "outputs": [
        {
          "internalType": "uint256",
          "name": "",
          "type": "uint256"
        }
      ],
      "stateMutability": "view",
      "type": "function"
    },
    {
      "inputs": [
        {
          "internalType": "address",
          "name": "",
          "type": "address"
        }
      ],
      "name": "eleventh_schedule",
      "outputs": [
        {
          "internalType": "uint256",
          "name": "",
          "type": "uint256"
        }
      ],
      "stateMutability": "view",
      "type": "function"
    },
    {
      "inputs": [
        {
          "internalType": "address",
          "name": "",
          "type": "address"
        }
      ],
      "name": "employee",
      "outputs": [
        {
          "internalType": "uint256",
          "name": "",
          "type": "uint256"
        }
      ],
      "stateMutability": "view",
      "type": "function"
    },
    {
      "inputs": [
        {
          "internalType": "address",
          "name": "",
          "type": "address"
        }
      ],
      "name": "fifth_payment",
      "outputs": [
        {
          "internalType": "uint256",
          "name": "",
          "type": "uint256"
        }
      ],
      "stateMutability": "view",
      "type": "function"
    },
    {
      "inputs": [
        {
          "internalType": "address",
          "name": "",
          "type": "address"
        }
      ],
      "name": "fifth_schedule",
      "outputs": [
        {
          "internalType": "uint256",
          "name": "",
          "type": "uint256"
        }
      ],
      "stateMutability": "view",
      "type": "function"
    },
    {
      "inputs": [
        {
          "internalType": "address",
          "name": "",
          "type": "address"
        }
      ],
      "name": "first_payment",
      "outputs": [
        {
          "internalType": "uint256",
          "name": "",
          "type": "uint256"
        }
      ],
      "stateMutability": "view",
      "type": "function"
    },
    {
      "inputs": [
        {
          "internalType": "address",
          "name": "",
          "type": "address"
        }
      ],
      "name": "first_schedule",
      "outputs": [
        {
          "internalType": "uint256",
          "name": "",
          "type": "uint256"
        }
      ],
      "stateMutability": "view",
      "type": "function"
    },
    {
      "inputs": [
        {
          "internalType": "address",
          "name": "",
          "type": "address"
        }
      ],
      "name": "fourth_payment",
      "outputs": [
        {
          "internalType": "uint256",
          "name": "",
          "type": "uint256"
        }
      ],
      "stateMutability": "view",
      "type": "function"
    },
    {
      "inputs": [
        {
          "internalType": "address",
          "name": "",
          "type": "address"
        }
      ],
      "name": "fourth_schedule",
      "outputs": [
        {
          "internalType": "uint256",
          "name": "",
          "type": "uint256"
        }
      ],
      "stateMutability": "view",
      "type": "function"
    },
    {
      "inputs": [],
      "name": "interval",
      "outputs": [
        {
          "internalType": "uint256",
          "name": "",
          "type": "uint256"
        }
      ],
      "stateMutability": "view",
      "type": "function"
    },
    {
      "inputs": [],
      "name": "kyo",
      "outputs": [
        {
          "internalType": "contract IERC20",
          "name": "",
          "type": "address"
        }
      ],
      "stateMutability": "view",
      "type": "function"
    },
    {
      "inputs": [
        {
          "internalType": "address",
          "name": "",
          "type": "address"
        }
      ],
      "name": "ninth_payment",
      "outputs": [
        {
          "internalType": "uint256",
          "name": "",
          "type": "uint256"
        }
      ],
      "stateMutability": "view",
      "type": "function"
    },
    {
      "inputs": [
        {
          "internalType": "address",
          "name": "",
          "type": "address"
        }
      ],
      "name": "ninth_schedule",
      "outputs": [
        {
          "internalType": "uint256",
          "name": "",
          "type": "uint256"
        }
      ],
      "stateMutability": "view",
      "type": "function"
    },
    {
      "inputs": [],
      "name": "owner",
      "outputs": [
        {
          "internalType": "address",
          "name": "",
          "type": "address"
        }
      ],
      "stateMutability": "view",
      "type": "function"
    },
    {
      "inputs": [
        {
          "internalType": "address",
          "name": "",
          "type": "address"
        }
      ],
      "name": "partners",
      "outputs": [
        {
          "internalType": "bool",
          "name": "",
          "type": "bool"
        }
      ],
      "stateMutability": "view",
      "type": "function"
    },
    {
      "inputs": [],
      "name": "renounceOwnership",
      "outputs": [],
      "stateMutability": "nonpayable",
      "type": "function"
    },
    {
      "inputs": [
        {
          "internalType": "address",
          "name": "_employee",
          "type": "address"
        }
      ],
      "name": "revoke_employee",
      "outputs": [],
      "stateMutability": "nonpayable",
      "type": "function"
    },
    {
      "inputs": [
        {
          "internalType": "address",
          "name": "",
          "type": "address"
        }
      ],
      "name": "revoked",
      "outputs": [
        {
          "internalType": "bool",
          "name": "",
          "type": "bool"
        }
      ],
      "stateMutability": "view",
      "type": "function"
    },
    {
      "inputs": [
        {
          "internalType": "address",
          "name": "",
          "type": "address"
        }
      ],
      "name": "second_payment",
      "outputs": [
        {
          "internalType": "uint256",
          "name": "",
          "type": "uint256"
        }
      ],
      "stateMutability": "view",
      "type": "function"
    },
    {
      "inputs": [
        {
          "internalType": "address",
          "name": "",
          "type": "address"
        }
      ],
      "name": "second_schedule",
      "outputs": [
        {
          "internalType": "uint256",
          "name": "",
          "type": "uint256"
        }
      ],
      "stateMutability": "view",
      "type": "function"
    },
    {
      "inputs": [
        {
          "internalType": "address",
          "name": "",
          "type": "address"
        }
      ],
      "name": "seventh_payment",
      "outputs": [
        {
          "internalType": "uint256",
          "name": "",
          "type": "uint256"
        }
      ],
      "stateMutability": "view",
      "type": "function"
    },
    {
      "inputs": [
        {
          "internalType": "address",
          "name": "",
          "type": "address"
        }
      ],
      "name": "seventh_schedule",
      "outputs": [
        {
          "internalType": "uint256",
          "name": "",
          "type": "uint256"
        }
      ],
      "stateMutability": "view",
      "type": "function"
    },
    {
      "inputs": [
        {
          "internalType": "address",
          "name": "",
          "type": "address"
        }
      ],
      "name": "sixth_payment",
      "outputs": [
        {
          "internalType": "uint256",
          "name": "",
          "type": "uint256"
        }
      ],
      "stateMutability": "view",
      "type": "function"
    },
    {
      "inputs": [
        {
          "internalType": "address",
          "name": "",
          "type": "address"
        }
      ],
      "name": "sixth_schedule",
      "outputs": [
        {
          "internalType": "uint256",
          "name": "",
          "type": "uint256"
        }
      ],
      "stateMutability": "view",
      "type": "function"
    },
    {
      "inputs": [
        {
          "internalType": "address",
          "name": "",
          "type": "address"
        }
      ],
      "name": "tenth_payment",
      "outputs": [
        {
          "internalType": "uint256",
          "name": "",
          "type": "uint256"
        }
      ],
      "stateMutability": "view",
      "type": "function"
    },
    {
      "inputs": [
        {
          "internalType": "address",
          "name": "",
          "type": "address"
        }
      ],
      "name": "tenth_schedule",
      "outputs": [
        {
          "internalType": "uint256",
          "name": "",
          "type": "uint256"
        }
      ],
      "stateMutability": "view",
      "type": "function"
    },
    {
      "inputs": [
        {
          "internalType": "address",
          "name": "",
          "type": "address"
        }
      ],
      "name": "third_payment",
      "outputs": [
        {
          "internalType": "uint256",
          "name": "",
          "type": "uint256"
        }
      ],
      "stateMutability": "view",
      "type": "function"
    },
    {
      "inputs": [
        {
          "internalType": "address",
          "name": "",
          "type": "address"
        }
      ],
      "name": "third_schedule",
      "outputs": [
        {
          "internalType": "uint256",
          "name": "",
          "type": "uint256"
        }
      ],
      "stateMutability": "view",
      "type": "function"
    },
    {
      "inputs": [],
      "name": "totalSupply",
      "outputs": [
        {
          "internalType": "uint256",
          "name": "",
          "type": "uint256"
        }
      ],
      "stateMutability": "view",
      "type": "function"
    },
    {
      "inputs": [
        {
          "internalType": "address",
          "name": "recipient",
          "type": "address"
        },
        {
          "internalType": "uint256",
          "name": "amount",
          "type": "uint256"
        }
      ],
      "name": "transfer",
      "outputs": [
        {
          "internalType": "bool",
          "name": "",
          "type": "bool"
        }
      ],
      "stateMutability": "nonpayable",
      "type": "function"
    },
    {
      "inputs": [
        {
          "internalType": "address",
          "name": "sender",
          "type": "address"
        },
        {
          "internalType": "address",
          "name": "recipient",
          "type": "address"
        },
        {
          "internalType": "uint256",
          "name": "amount",
          "type": "uint256"
        }
      ],
      "name": "transferFrom",
      "outputs": [
        {
          "internalType": "bool",
          "name": "",
          "type": "bool"
        }
      ],
      "stateMutability": "nonpayable",
      "type": "function"
    },
    {
      "inputs": [
        {
          "internalType": "address",
          "name": "newOwner",
          "type": "address"
        }
      ],
      "name": "transferOwnership",
      "outputs": [],
      "stateMutability": "nonpayable",
      "type": "function"
    },
    {
      "inputs": [
        {
          "internalType": "address",
          "name": "",
          "type": "address"
        }
      ],
      "name": "twelfth_payment",
      "outputs": [
        {
          "internalType": "uint256",
          "name": "",
          "type": "uint256"
        }
      ],
      "stateMutability": "view",
      "type": "function"
    },
    {
      "inputs": [
        {
          "internalType": "address",
          "name": "",
          "type": "address"
        }
      ],
      "name": "twelfth_schedule",
      "outputs": [
        {
          "internalType": "uint256",
          "name": "",
          "type": "uint256"
        }
      ],
      "stateMutability": "view",
      "type": "function"
    },
    {
      "inputs": [],
      "name": "withdraw",
      "outputs": [
        {
          "internalType": "bool",
          "name": "",
          "type": "bool"
        }
      ],
      "stateMutability": "nonpayable",
      "type": "function"
    },
    {
      "inputs": [],
      "name": "withdraw_remaining_balance",
      "outputs": [],
      "stateMutability": "nonpayable",
      "type": "function"
    }
  ],
  "bytecode": "0x60806040523480156200001157600080fd5b5060405162005b4b38038062005b4b8339818101604052810190620000379190620001e4565b6000620000496200013760201b60201c565b9050806000806101000a81548173ffffffffffffffffffffffffffffffffffffffff021916908373ffffffffffffffffffffffffffffffffffffffff1602179055508073ffffffffffffffffffffffffffffffffffffffff16600073ffffffffffffffffffffffffffffffffffffffff167f8be0079c531659141344cd1fd0a4f28419497f9722a3daafe3b4186f6b6457e060405160405180910390a35081601e60006101000a81548173ffffffffffffffffffffffffffffffffffffffff021916908373ffffffffffffffffffffffffffffffffffffffff1602179055508060018190555050506200022b565b600033905090565b600080fd5b600073ffffffffffffffffffffffffffffffffffffffff82169050919050565b6000620001718262000144565b9050919050565b620001838162000164565b81146200018f57600080fd5b50565b600081519050620001a38162000178565b92915050565b6000819050919050565b620001be81620001a9565b8114620001ca57600080fd5b50565b600081519050620001de81620001b3565b92915050565b60008060408385031215620001fe57620001fd6200013f565b5b60006200020e8582860162000192565b92505060206200022185828601620001cd565b9150509250929050565b615910806200023b6000396000f3fe608060405234801561001057600080fd5b506004361061027e5760003560e01c80637e12cc2a1161015c578063d4249602116100ce578063eaf064b711610087578063eaf064b7146108f3578063ec9fbf5614610923578063f2fde38b14610953578063f40b7d6b1461096f578063f5ca6d8d1461099f578063fa01dc06146109bb5761027e565b8063d4249602146107f9578063dd62ed3e14610829578063de1dea4f14610859578063dfc51b6e14610889578063e420bdf414610893578063ea74b927146108c35761027e565b806398f70aa01161012057806398f70aa0146106ff578063996184391461072f578063a9059cbb1461074d578063b2a042981461077d578063cbb0bdb8146107ad578063cbca9f9f146107c95761027e565b80637e12cc2a146106475780638da5cb5b146106775780638ef089ae14610695578063947a36fb146106b157806395c33652146106cf5761027e565b80633ccfd60b116101f55780635e4f6e43116101b95780635e4f6e431461054d5780636b3a3c5b1461057d57806370a08231146105ad578063715018a6146105dd57806372cc3d33146105e75780637785242e146106175761027e565b80633ccfd60b1461046f5780633e9929f11461048d57806348616164146104bd5780634a924911146104ed57806354834ce01461051d5761027e565b806318160ddd1161024757806318160ddd1461037357806323b872dd1461039157806323df4469146103c15780632c7b0363146103f1578063311ec23a146104215780633b320994146104515761027e565b8062d827041461028357806301a17d76146102b3578063095ea7b3146102e357806309d495fd146103135780630ceb4c8114610343575b600080fd5b61029d60048036038101906102989190614da1565b6109eb565b6040516102aa9190614de7565b60405180910390f35b6102cd60048036038101906102c89190614da1565b610a03565b6040516102da9190614de7565b60405180910390f35b6102fd60048036038101906102f89190614e2e565b610a1b565b60405161030a9190614e89565b60405180910390f35b61032d60048036038101906103289190614da1565b610a23565b60405161033a9190614e89565b60405180910390f35b61035d60048036038101906103589190614da1565b610a43565b60405161036a9190614de7565b60405180910390f35b61037b610a5b565b6040516103889190614de7565b60405180910390f35b6103ab60048036038101906103a69190614ea4565b610a60565b6040516103b89190614e89565b60405180910390f35b6103db60048036038101906103d69190614da1565b610a69565b6040516103e89190614de7565b60405180910390f35b61040b60048036038101906104069190614da1565b610a81565b6040516104189190614de7565b60405180910390f35b61043b60048036038101906104369190614da1565b610a99565b6040516104489190614de7565b60405180910390f35b610459610ab1565b6040516104669190614de7565b60405180910390f35b610477610abe565b6040516104849190614e89565b60405180910390f35b6104a760048036038101906104a29190614da1565b6125cc565b6040516104b49190614de7565b60405180910390f35b6104d760048036038101906104d29190614da1565b6125e4565b6040516104e49190614de7565b60405180910390f35b61050760048036038101906105029190614da1565b6125fc565b6040516105149190614de7565b60405180910390f35b61053760048036038101906105329190614da1565b612614565b6040516105449190614de7565b60405180910390f35b61056760048036038101906105629190614da1565b61262c565b6040516105749190614de7565b60405180910390f35b61059760048036038101906105929190614da1565b612644565b6040516105a49190614de7565b60405180910390f35b6105c760048036038101906105c29190614da1565b61265c565b6040516105d49190614de7565b60405180910390f35b6105e5612663565b005b61060160048036038101906105fc9190614da1565b61279d565b60405161060e9190614de7565b60405180910390f35b610631600480360381019061062c9190614da1565b6127b5565b60405161063e9190614de7565b60405180910390f35b610661600480360381019061065c9190614da1565b6127cd565b60405161066e9190614de7565b60405180910390f35b61067f6127e5565b60405161068c9190614f06565b60405180910390f35b6106af60048036038101906106aa9190614da1565b61280e565b005b6106b9612e6e565b6040516106c69190614de7565b60405180910390f35b6106e960048036038101906106e49190614da1565b612e74565b6040516106f69190614e89565b60405180910390f35b61071960048036038101906107149190614da1565b612e94565b6040516107269190614de7565b60405180910390f35b610737612eac565b6040516107449190614f80565b60405180910390f35b61076760048036038101906107629190614e2e565b612ed2565b6040516107749190614e89565b60405180910390f35b61079760048036038101906107929190614da1565b612eda565b6040516107a49190614de7565b60405180910390f35b6107c760048036038101906107c29190614f9b565b612ef2565b005b6107e360048036038101906107de9190614da1565b613bb0565b6040516107f09190614de7565b60405180910390f35b610813600480360381019061080e9190614da1565b613bc8565b6040516108209190614de7565b60405180910390f35b610843600480360381019061083e9190614fee565b613be0565b6040516108509190614de7565b60405180910390f35b610873600480360381019061086e9190614da1565b613be8565b6040516108809190614de7565b60405180910390f35b610891613c00565b005b6108ad60048036038101906108a89190614da1565b613dc7565b6040516108ba9190614e89565b60405180910390f35b6108dd60048036038101906108d89190614da1565b613de7565b6040516108ea9190614de7565b60405180910390f35b61090d60048036038101906109089190614da1565b613dff565b60405161091a9190614de7565b60405180910390f35b61093d60048036038101906109389190614da1565b613e17565b60405161094a9190614de7565b60405180910390f35b61096d60048036038101906109689190614da1565b613e2f565b005b61098960048036038101906109849190614da1565b613fd8565b6040516109969190614de7565b60405180910390f35b6109b960048036038101906109b49190614f9b565b613ff0565b005b6109d560048036038101906109d09190614da1565b614cea565b6040516109e29190614e89565b60405180910390f35b60086020528060005260406000206000915090505481565b60196020528060005260406000206000915090505481565b600092915050565b60026020528060005260406000206000915054906101000a900460ff1681565b60136020528060005260406000206000915090505481565b600090565b60009392505050565b600a6020528060005260406000206000915090505481565b60066020528060005260406000206000915090505481565b60116020528060005260406000206000915090505481565b6000804290508091505090565b60006001151560026000610ad0614d0a565b73ffffffffffffffffffffffffffffffffffffffff1673ffffffffffffffffffffffffffffffffffffffff16815260200190815260200160002060009054906101000a900460ff16151514610b5a576040517f08c379a0000000000000000000000000000000000000000000000000000000008152600401610b51906150b1565b60405180910390fd5b6001151560036000610b6a614d0a565b73ffffffffffffffffffffffffffffffffffffffff1673ffffffffffffffffffffffffffffffffffffffff16815260200190815260200160002060009054906101000a900460ff1615151415610bf5576040517f08c379a0000000000000000000000000000000000000000000000000000000008152600401610bec9061511d565b60405180910390fd5b60066000610c01614d0a565b73ffffffffffffffffffffffffffffffffffffffff1673ffffffffffffffffffffffffffffffffffffffff1681526020019081526020016000205442118015610c905750600060126000610c53614d0a565b73ffffffffffffffffffffffffffffffffffffffff1673ffffffffffffffffffffffffffffffffffffffff16815260200190815260200160002054115b15610e1657601e60009054906101000a900473ffffffffffffffffffffffffffffffffffffffff1673ffffffffffffffffffffffffffffffffffffffff1663a9059cbb610cdb614d0a565b60126000610ce7614d0a565b73ffffffffffffffffffffffffffffffffffffffff1673ffffffffffffffffffffffffffffffffffffffff168152602001908152602001600020546040518363ffffffff1660e01b8152600401610d3f92919061513d565b6020604051808303816000875af1158015610d5e573d6000803e3d6000fd5b505050506040513d601f19601f82011682018060405250810190610d829190615192565b610dc1576040517f08c379a0000000000000000000000000000000000000000000000000000000008152600401610db89061520b565b60405180910390fd5b600060126000610dcf614d0a565b73ffffffffffffffffffffffffffffffffffffffff1673ffffffffffffffffffffffffffffffffffffffff16815260200190815260200160002081905550600190506125c9565b60076000610e22614d0a565b73ffffffffffffffffffffffffffffffffffffffff1673ffffffffffffffffffffffffffffffffffffffff1681526020019081526020016000205442118015610eb15750600060136000610e74614d0a565b73ffffffffffffffffffffffffffffffffffffffff1673ffffffffffffffffffffffffffffffffffffffff16815260200190815260200160002054115b1561103757601e60009054906101000a900473ffffffffffffffffffffffffffffffffffffffff1673ffffffffffffffffffffffffffffffffffffffff1663a9059cbb610efc614d0a565b60136000610f08614d0a565b73ffffffffffffffffffffffffffffffffffffffff1673ffffffffffffffffffffffffffffffffffffffff168152602001908152602001600020546040518363ffffffff1660e01b8152600401610f6092919061513d565b6020604051808303816000875af1158015610f7f573d6000803e3d6000fd5b505050506040513d601f19601f82011682018060405250810190610fa39190615192565b610fe2576040517f08c379a0000000000000000000000000000000000000000000000000000000008152600401610fd99061520b565b60405180910390fd5b600060136000610ff0614d0a565b73ffffffffffffffffffffffffffffffffffffffff1673ffffffffffffffffffffffffffffffffffffffff16815260200190815260200160002081905550600190506125c9565b60086000611043614d0a565b73ffffffffffffffffffffffffffffffffffffffff1673ffffffffffffffffffffffffffffffffffffffff16815260200190815260200160002054421180156110d25750600060146000611095614d0a565b73ffffffffffffffffffffffffffffffffffffffff1673ffffffffffffffffffffffffffffffffffffffff16815260200190815260200160002054115b1561125857601e60009054906101000a900473ffffffffffffffffffffffffffffffffffffffff1673ffffffffffffffffffffffffffffffffffffffff1663a9059cbb61111d614d0a565b60146000611129614d0a565b73ffffffffffffffffffffffffffffffffffffffff1673ffffffffffffffffffffffffffffffffffffffff168152602001908152602001600020546040518363ffffffff1660e01b815260040161118192919061513d565b6020604051808303816000875af11580156111a0573d6000803e3d6000fd5b505050506040513d601f19601f820116820180604052508101906111c49190615192565b611203576040517f08c379a00000000000000000000000000000000000000000000000000000000081526004016111fa9061520b565b60405180910390fd5b600060146000611211614d0a565b73ffffffffffffffffffffffffffffffffffffffff1673ffffffffffffffffffffffffffffffffffffffff16815260200190815260200160002081905550600190506125c9565b60096000611264614d0a565b73ffffffffffffffffffffffffffffffffffffffff1673ffffffffffffffffffffffffffffffffffffffff16815260200190815260200160002054421180156112f357506000601560006112b6614d0a565b73ffffffffffffffffffffffffffffffffffffffff1673ffffffffffffffffffffffffffffffffffffffff16815260200190815260200160002054115b1561147957601e60009054906101000a900473ffffffffffffffffffffffffffffffffffffffff1673ffffffffffffffffffffffffffffffffffffffff1663a9059cbb61133e614d0a565b6015600061134a614d0a565b73ffffffffffffffffffffffffffffffffffffffff1673ffffffffffffffffffffffffffffffffffffffff168152602001908152602001600020546040518363ffffffff1660e01b81526004016113a292919061513d565b6020604051808303816000875af11580156113c1573d6000803e3d6000fd5b505050506040513d601f19601f820116820180604052508101906113e59190615192565b611424576040517f08c379a000000000000000000000000000000000000000000000000000000000815260040161141b9061520b565b60405180910390fd5b600060156000611432614d0a565b73ffffffffffffffffffffffffffffffffffffffff1673ffffffffffffffffffffffffffffffffffffffff16815260200190815260200160002081905550600190506125c9565b600a6000611485614d0a565b73ffffffffffffffffffffffffffffffffffffffff1673ffffffffffffffffffffffffffffffffffffffff168152602001908152602001600020544211801561151457506000601660006114d7614d0a565b73ffffffffffffffffffffffffffffffffffffffff1673ffffffffffffffffffffffffffffffffffffffff16815260200190815260200160002054115b1561169a57601e60009054906101000a900473ffffffffffffffffffffffffffffffffffffffff1673ffffffffffffffffffffffffffffffffffffffff1663a9059cbb61155f614d0a565b6016600061156b614d0a565b73ffffffffffffffffffffffffffffffffffffffff1673ffffffffffffffffffffffffffffffffffffffff168152602001908152602001600020546040518363ffffffff1660e01b81526004016115c392919061513d565b6020604051808303816000875af11580156115e2573d6000803e3d6000fd5b505050506040513d601f19601f820116820180604052508101906116069190615192565b611645576040517f08c379a000000000000000000000000000000000000000000000000000000000815260040161163c9061520b565b60405180910390fd5b600060166000611653614d0a565b73ffffffffffffffffffffffffffffffffffffffff1673ffffffffffffffffffffffffffffffffffffffff16815260200190815260200160002081905550600190506125c9565b600b60006116a6614d0a565b73ffffffffffffffffffffffffffffffffffffffff1673ffffffffffffffffffffffffffffffffffffffff168152602001908152602001600020544211801561173557506000601760006116f8614d0a565b73ffffffffffffffffffffffffffffffffffffffff1673ffffffffffffffffffffffffffffffffffffffff16815260200190815260200160002054115b156118bb57601e60009054906101000a900473ffffffffffffffffffffffffffffffffffffffff1673ffffffffffffffffffffffffffffffffffffffff1663a9059cbb611780614d0a565b6017600061178c614d0a565b73ffffffffffffffffffffffffffffffffffffffff1673ffffffffffffffffffffffffffffffffffffffff168152602001908152602001600020546040518363ffffffff1660e01b81526004016117e492919061513d565b6020604051808303816000875af1158015611803573d6000803e3d6000fd5b505050506040513d601f19601f820116820180604052508101906118279190615192565b611866576040517f08c379a000000000000000000000000000000000000000000000000000000000815260040161185d9061520b565b60405180910390fd5b600060176000611874614d0a565b73ffffffffffffffffffffffffffffffffffffffff1673ffffffffffffffffffffffffffffffffffffffff16815260200190815260200160002081905550600190506125c9565b600c60006118c7614d0a565b73ffffffffffffffffffffffffffffffffffffffff1673ffffffffffffffffffffffffffffffffffffffff16815260200190815260200160002054421180156119565750600060186000611919614d0a565b73ffffffffffffffffffffffffffffffffffffffff1673ffffffffffffffffffffffffffffffffffffffff16815260200190815260200160002054115b15611adc57601e60009054906101000a900473ffffffffffffffffffffffffffffffffffffffff1673ffffffffffffffffffffffffffffffffffffffff1663a9059cbb6119a1614d0a565b601860006119ad614d0a565b73ffffffffffffffffffffffffffffffffffffffff1673ffffffffffffffffffffffffffffffffffffffff168152602001908152602001600020546040518363ffffffff1660e01b8152600401611a0592919061513d565b6020604051808303816000875af1158015611a24573d6000803e3d6000fd5b505050506040513d601f19601f82011682018060405250810190611a489190615192565b611a87576040517f08c379a0000000000000000000000000000000000000000000000000000000008152600401611a7e9061520b565b60405180910390fd5b600060186000611a95614d0a565b73ffffffffffffffffffffffffffffffffffffffff1673ffffffffffffffffffffffffffffffffffffffff16815260200190815260200160002081905550600190506125c9565b600d6000611ae8614d0a565b73ffffffffffffffffffffffffffffffffffffffff1673ffffffffffffffffffffffffffffffffffffffff1681526020019081526020016000205442118015611b775750600060196000611b3a614d0a565b73ffffffffffffffffffffffffffffffffffffffff1673ffffffffffffffffffffffffffffffffffffffff16815260200190815260200160002054115b15611cfd57601e60009054906101000a900473ffffffffffffffffffffffffffffffffffffffff1673ffffffffffffffffffffffffffffffffffffffff1663a9059cbb611bc2614d0a565b60196000611bce614d0a565b73ffffffffffffffffffffffffffffffffffffffff1673ffffffffffffffffffffffffffffffffffffffff168152602001908152602001600020546040518363ffffffff1660e01b8152600401611c2692919061513d565b6020604051808303816000875af1158015611c45573d6000803e3d6000fd5b505050506040513d601f19601f82011682018060405250810190611c699190615192565b611ca8576040517f08c379a0000000000000000000000000000000000000000000000000000000008152600401611c9f9061520b565b60405180910390fd5b600060196000611cb6614d0a565b73ffffffffffffffffffffffffffffffffffffffff1673ffffffffffffffffffffffffffffffffffffffff16815260200190815260200160002081905550600190506125c9565b600e6000611d09614d0a565b73ffffffffffffffffffffffffffffffffffffffff1673ffffffffffffffffffffffffffffffffffffffff1681526020019081526020016000205442118015611d9857506000601a6000611d5b614d0a565b73ffffffffffffffffffffffffffffffffffffffff1673ffffffffffffffffffffffffffffffffffffffff16815260200190815260200160002054115b15611f1e57601e60009054906101000a900473ffffffffffffffffffffffffffffffffffffffff1673ffffffffffffffffffffffffffffffffffffffff1663a9059cbb611de3614d0a565b601a6000611def614d0a565b73ffffffffffffffffffffffffffffffffffffffff1673ffffffffffffffffffffffffffffffffffffffff168152602001908152602001600020546040518363ffffffff1660e01b8152600401611e4792919061513d565b6020604051808303816000875af1158015611e66573d6000803e3d6000fd5b505050506040513d601f19601f82011682018060405250810190611e8a9190615192565b611ec9576040517f08c379a0000000000000000000000000000000000000000000000000000000008152600401611ec09061520b565b60405180910390fd5b6000601a6000611ed7614d0a565b73ffffffffffffffffffffffffffffffffffffffff1673ffffffffffffffffffffffffffffffffffffffff16815260200190815260200160002081905550600190506125c9565b600f6000611f2a614d0a565b73ffffffffffffffffffffffffffffffffffffffff1673ffffffffffffffffffffffffffffffffffffffff1681526020019081526020016000205442118015611fb957506000601b6000611f7c614d0a565b73ffffffffffffffffffffffffffffffffffffffff1673ffffffffffffffffffffffffffffffffffffffff16815260200190815260200160002054115b1561213f57601e60009054906101000a900473ffffffffffffffffffffffffffffffffffffffff1673ffffffffffffffffffffffffffffffffffffffff1663a9059cbb612004614d0a565b601b6000612010614d0a565b73ffffffffffffffffffffffffffffffffffffffff1673ffffffffffffffffffffffffffffffffffffffff168152602001908152602001600020546040518363ffffffff1660e01b815260040161206892919061513d565b6020604051808303816000875af1158015612087573d6000803e3d6000fd5b505050506040513d601f19601f820116820180604052508101906120ab9190615192565b6120ea576040517f08c379a00000000000000000000000000000000000000000000000000000000081526004016120e19061520b565b60405180910390fd5b6000601b60006120f8614d0a565b73ffffffffffffffffffffffffffffffffffffffff1673ffffffffffffffffffffffffffffffffffffffff16815260200190815260200160002081905550600190506125c9565b6010600061214b614d0a565b73ffffffffffffffffffffffffffffffffffffffff1673ffffffffffffffffffffffffffffffffffffffff16815260200190815260200160002054421180156121da57506000601c600061219d614d0a565b73ffffffffffffffffffffffffffffffffffffffff1673ffffffffffffffffffffffffffffffffffffffff16815260200190815260200160002054115b1561236057601e60009054906101000a900473ffffffffffffffffffffffffffffffffffffffff1673ffffffffffffffffffffffffffffffffffffffff1663a9059cbb612225614d0a565b601c6000612231614d0a565b73ffffffffffffffffffffffffffffffffffffffff1673ffffffffffffffffffffffffffffffffffffffff168152602001908152602001600020546040518363ffffffff1660e01b815260040161228992919061513d565b6020604051808303816000875af11580156122a8573d6000803e3d6000fd5b505050506040513d601f19601f820116820180604052508101906122cc9190615192565b61230b576040517f08c379a00000000000000000000000000000000000000000000000000000000081526004016123029061520b565b60405180910390fd5b6000601c6000612319614d0a565b73ffffffffffffffffffffffffffffffffffffffff1673ffffffffffffffffffffffffffffffffffffffff16815260200190815260200160002081905550600190506125c9565b6011600061236c614d0a565b73ffffffffffffffffffffffffffffffffffffffff1673ffffffffffffffffffffffffffffffffffffffff16815260200190815260200160002054421180156123fb57506000601d60006123be614d0a565b73ffffffffffffffffffffffffffffffffffffffff1673ffffffffffffffffffffffffffffffffffffffff16815260200190815260200160002054115b1561258157601e60009054906101000a900473ffffffffffffffffffffffffffffffffffffffff1673ffffffffffffffffffffffffffffffffffffffff1663a9059cbb612446614d0a565b601d6000612452614d0a565b73ffffffffffffffffffffffffffffffffffffffff1673ffffffffffffffffffffffffffffffffffffffff168152602001908152602001600020546040518363ffffffff1660e01b81526004016124aa92919061513d565b6020604051808303816000875af11580156124c9573d6000803e3d6000fd5b505050506040513d601f19601f820116820180604052508101906124ed9190615192565b61252c576040517f08c379a00000000000000000000000000000000000000000000000000000000081526004016125239061520b565b60405180910390fd5b6000601d600061253a614d0a565b73ffffffffffffffffffffffffffffffffffffffff1673ffffffffffffffffffffffffffffffffffffffff16815260200190815260200160002081905550600190506125c9565b600142106125c4576040517f08c379a00000000000000000000000000000000000000000000000000000000081526004016125bb9061529d565b60405180910390fd5b600090505b90565b601a6020528060005260406000206000915090505481565b601c6020528060005260406000206000915090505481565b600b6020528060005260406000206000915090505481565b600d6020528060005260406000206000915090505481565b600e6020528060005260406000206000915090505481565b60186020528060005260406000206000915090505481565b6000919050565b61266b614d0a565b73ffffffffffffffffffffffffffffffffffffffff166126896127e5565b73ffffffffffffffffffffffffffffffffffffffff16146126df576040517f08c379a00000000000000000000000000000000000000000000000000000000081526004016126d690615309565b60405180910390fd5b600073ffffffffffffffffffffffffffffffffffffffff1660008054906101000a900473ffffffffffffffffffffffffffffffffffffffff1673ffffffffffffffffffffffffffffffffffffffff167f8be0079c531659141344cd1fd0a4f28419497f9722a3daafe3b4186f6b6457e060405160405180910390a360008060006101000a81548173ffffffffffffffffffffffffffffffffffffffff021916908373ffffffffffffffffffffffffffffffffffffffff160217905550565b60126020528060005260406000206000915090505481565b600c6020528060005260406000206000915090505481565b60176020528060005260406000206000915090505481565b60008060009054906101000a900473ffffffffffffffffffffffffffffffffffffffff16905090565b612816614d0a565b73ffffffffffffffffffffffffffffffffffffffff166128346127e5565b73ffffffffffffffffffffffffffffffffffffffff161461288a576040517f08c379a000000000000000000000000000000000000000000000000000000000815260040161288190615309565b60405180910390fd5b600073ffffffffffffffffffffffffffffffffffffffff168173ffffffffffffffffffffffffffffffffffffffff1614156128c457600080fd5b60011515600460008373ffffffffffffffffffffffffffffffffffffffff1673ffffffffffffffffffffffffffffffffffffffff16815260200190815260200160002060009054906101000a900460ff1615151415612958576040517f08c379a000000000000000000000000000000000000000000000000000000000815260040161294f90615375565b60405180910390fd5b60011515600260008373ffffffffffffffffffffffffffffffffffffffff1673ffffffffffffffffffffffffffffffffffffffff16815260200190815260200160002060009054906101000a900460ff161515146129eb576040517f08c379a00000000000000000000000000000000000000000000000000000000081526004016129e290615407565b60405180910390fd5b60011515600360008373ffffffffffffffffffffffffffffffffffffffff1673ffffffffffffffffffffffffffffffffffffffff16815260200190815260200160002060009054906101000a900460ff1615151415612a7f576040517f08c379a0000000000000000000000000000000000000000000000000000000008152600401612a7690615499565b60405180910390fd5b6000600260008373ffffffffffffffffffffffffffffffffffffffff1673ffffffffffffffffffffffffffffffffffffffff16815260200190815260200160002060006101000a81548160ff0219169083151502179055506001600360008373ffffffffffffffffffffffffffffffffffffffff1673ffffffffffffffffffffffffffffffffffffffff16815260200190815260200160002060006101000a81548160ff0219169083151502179055506000601260008373ffffffffffffffffffffffffffffffffffffffff1673ffffffffffffffffffffffffffffffffffffffff168152602001908152602001600020819055506000601360008373ffffffffffffffffffffffffffffffffffffffff1673ffffffffffffffffffffffffffffffffffffffff168152602001908152602001600020819055506000601460008373ffffffffffffffffffffffffffffffffffffffff1673ffffffffffffffffffffffffffffffffffffffff168152602001908152602001600020819055506000601560008373ffffffffffffffffffffffffffffffffffffffff1673ffffffffffffffffffffffffffffffffffffffff168152602001908152602001600020819055506000601660008373ffffffffffffffffffffffffffffffffffffffff1673ffffffffffffffffffffffffffffffffffffffff168152602001908152602001600020819055506000601760008373ffffffffffffffffffffffffffffffffffffffff1673ffffffffffffffffffffffffffffffffffffffff168152602001908152602001600020819055506000601860008373ffffffffffffffffffffffffffffffffffffffff1673ffffffffffffffffffffffffffffffffffffffff168152602001908152602001600020819055506000601960008373ffffffffffffffffffffffffffffffffffffffff1673ffffffffffffffffffffffffffffffffffffffff168152602001908152602001600020819055506000601a60008373ffffffffffffffffffffffffffffffffffffffff1673ffffffffffffffffffffffffffffffffffffffff168152602001908152602001600020819055506000601b60008373ffffffffffffffffffffffffffffffffffffffff1673ffffffffffffffffffffffffffffffffffffffff168152602001908152602001600020819055506000601c60008373ffffffffffffffffffffffffffffffffffffffff1673ffffffffffffffffffffffffffffffffffffffff168152602001908152602001600020819055506000601d60008373ffffffffffffffffffffffffffffffffffffffff1673ffffffffffffffffffffffffffffffffffffffff1681526020019081526020016000208190555050565b60015481565b60046020528060005260406000206000915054906101000a900460ff1681565b60146020528060005260406000206000915090505481565b601e60009054906101000a900473ffffffffffffffffffffffffffffffffffffffff1681565b600092915050565b600f6020528060005260406000206000915090505481565b612efa614d0a565b73ffffffffffffffffffffffffffffffffffffffff16612f186127e5565b73ffffffffffffffffffffffffffffffffffffffff1614612f6e576040517f08c379a0000000000000000000000000000000000000000000000000000000008152600401612f6590615309565b60405180910390fd5b600073ffffffffffffffffffffffffffffffffffffffff168373ffffffffffffffffffffffffffffffffffffffff161415612fa857600080fd5b60011515600460008573ffffffffffffffffffffffffffffffffffffffff1673ffffffffffffffffffffffffffffffffffffffff16815260200190815260200160002060009054906101000a900460ff161515141561303c576040517f08c379a000000000000000000000000000000000000000000000000000000000815260040161303390615505565b60405180910390fd5b6000821161304957600080fd5b60011515600560008573ffffffffffffffffffffffffffffffffffffffff1673ffffffffffffffffffffffffffffffffffffffff16815260200190815260200160002060009054906101000a900460ff16151514156130dd576040517f08c379a00000000000000000000000000000000000000000000000000000000081526004016130d490615597565b60405180910390fd5b6001600260008573ffffffffffffffffffffffffffffffffffffffff1673ffffffffffffffffffffffffffffffffffffffff16815260200190815260200160002060006101000a81548160ff0219169083151502179055506001600460008573ffffffffffffffffffffffffffffffffffffffff1673ffffffffffffffffffffffffffffffffffffffff16815260200190815260200160002060006101000a81548160ff0219169083151502179055506131a260015482614d1290919063ffffffff16565b600660008573ffffffffffffffffffffffffffffffffffffffff1673ffffffffffffffffffffffffffffffffffffffff16815260200190815260200160002081905550613239600154600660008673ffffffffffffffffffffffffffffffffffffffff1673ffffffffffffffffffffffffffffffffffffffff16815260200190815260200160002054614d1290919063ffffffff16565b600760008573ffffffffffffffffffffffffffffffffffffffff1673ffffffffffffffffffffffffffffffffffffffff168152602001908152602001600020819055506132d0600154600760008673ffffffffffffffffffffffffffffffffffffffff1673ffffffffffffffffffffffffffffffffffffffff16815260200190815260200160002054614d1290919063ffffffff16565b600860008573ffffffffffffffffffffffffffffffffffffffff1673ffffffffffffffffffffffffffffffffffffffff16815260200190815260200160002081905550613367600154600860008673ffffffffffffffffffffffffffffffffffffffff1673ffffffffffffffffffffffffffffffffffffffff16815260200190815260200160002054614d1290919063ffffffff16565b600960008573ffffffffffffffffffffffffffffffffffffffff1673ffffffffffffffffffffffffffffffffffffffff168152602001908152602001600020819055506133fe600154600960008673ffffffffffffffffffffffffffffffffffffffff1673ffffffffffffffffffffffffffffffffffffffff16815260200190815260200160002054614d1290919063ffffffff16565b600a60008573ffffffffffffffffffffffffffffffffffffffff1673ffffffffffffffffffffffffffffffffffffffff16815260200190815260200160002081905550613495600154600a60008673ffffffffffffffffffffffffffffffffffffffff1673ffffffffffffffffffffffffffffffffffffffff16815260200190815260200160002054614d1290919063ffffffff16565b600b60008573ffffffffffffffffffffffffffffffffffffffff1673ffffffffffffffffffffffffffffffffffffffff1681526020019081526020016000208190555061352c600154600b60008673ffffffffffffffffffffffffffffffffffffffff1673ffffffffffffffffffffffffffffffffffffffff16815260200190815260200160002054614d1290919063ffffffff16565b600c60008573ffffffffffffffffffffffffffffffffffffffff1673ffffffffffffffffffffffffffffffffffffffff168152602001908152602001600020819055506135c3600154600c60008673ffffffffffffffffffffffffffffffffffffffff1673ffffffffffffffffffffffffffffffffffffffff16815260200190815260200160002054614d1290919063ffffffff16565b600d60008573ffffffffffffffffffffffffffffffffffffffff1673ffffffffffffffffffffffffffffffffffffffff1681526020019081526020016000208190555061365a600154600d60008673ffffffffffffffffffffffffffffffffffffffff1673ffffffffffffffffffffffffffffffffffffffff16815260200190815260200160002054614d1290919063ffffffff16565b600e60008573ffffffffffffffffffffffffffffffffffffffff1673ffffffffffffffffffffffffffffffffffffffff168152602001908152602001600020819055506136f1600154600e60008673ffffffffffffffffffffffffffffffffffffffff1673ffffffffffffffffffffffffffffffffffffffff16815260200190815260200160002054614d1290919063ffffffff16565b600f60008573ffffffffffffffffffffffffffffffffffffffff1673ffffffffffffffffffffffffffffffffffffffff16815260200190815260200160002081905550613788600154600f60008673ffffffffffffffffffffffffffffffffffffffff1673ffffffffffffffffffffffffffffffffffffffff16815260200190815260200160002054614d1290919063ffffffff16565b601060008573ffffffffffffffffffffffffffffffffffffffff1673ffffffffffffffffffffffffffffffffffffffff1681526020019081526020016000208190555061381f600154601060008673ffffffffffffffffffffffffffffffffffffffff1673ffffffffffffffffffffffffffffffffffffffff16815260200190815260200160002054614d1290919063ffffffff16565b601160008573ffffffffffffffffffffffffffffffffffffffff1673ffffffffffffffffffffffffffffffffffffffff168152602001908152602001600020819055506000613878600c84614d2890919063ffffffff16565b905080601260008673ffffffffffffffffffffffffffffffffffffffff1673ffffffffffffffffffffffffffffffffffffffff1681526020019081526020016000208190555080601360008673ffffffffffffffffffffffffffffffffffffffff1673ffffffffffffffffffffffffffffffffffffffff1681526020019081526020016000208190555080601460008673ffffffffffffffffffffffffffffffffffffffff1673ffffffffffffffffffffffffffffffffffffffff1681526020019081526020016000208190555080601560008673ffffffffffffffffffffffffffffffffffffffff1673ffffffffffffffffffffffffffffffffffffffff1681526020019081526020016000208190555080601660008673ffffffffffffffffffffffffffffffffffffffff1673ffffffffffffffffffffffffffffffffffffffff1681526020019081526020016000208190555080601760008673ffffffffffffffffffffffffffffffffffffffff1673ffffffffffffffffffffffffffffffffffffffff1681526020019081526020016000208190555080601860008673ffffffffffffffffffffffffffffffffffffffff1673ffffffffffffffffffffffffffffffffffffffff1681526020019081526020016000208190555080601960008673ffffffffffffffffffffffffffffffffffffffff1673ffffffffffffffffffffffffffffffffffffffff1681526020019081526020016000208190555080601a60008673ffffffffffffffffffffffffffffffffffffffff1673ffffffffffffffffffffffffffffffffffffffff1681526020019081526020016000208190555080601b60008673ffffffffffffffffffffffffffffffffffffffff1673ffffffffffffffffffffffffffffffffffffffff1681526020019081526020016000208190555080601c60008673ffffffffffffffffffffffffffffffffffffffff1673ffffffffffffffffffffffffffffffffffffffff1681526020019081526020016000208190555080601d60008673ffffffffffffffffffffffffffffffffffffffff1673ffffffffffffffffffffffffffffffffffffffff1681526020019081526020016000208190555050505050565b60156020528060005260406000206000915090505481565b60106020528060005260406000206000915090505481565b600092915050565b601d6020528060005260406000206000915090505481565b613c08614d0a565b73ffffffffffffffffffffffffffffffffffffffff16613c266127e5565b73ffffffffffffffffffffffffffffffffffffffff1614613c7c576040517f08c379a0000000000000000000000000000000000000000000000000000000008152600401613c7390615309565b60405180910390fd5b6000601e60009054906101000a900473ffffffffffffffffffffffffffffffffffffffff1673ffffffffffffffffffffffffffffffffffffffff166370a08231306040518263ffffffff1660e01b8152600401613cd99190614f06565b602060405180830381865afa158015613cf6573d6000803e3d6000fd5b505050506040513d601f19601f82011682018060405250810190613d1a91906155cc565b9050601e60009054906101000a900473ffffffffffffffffffffffffffffffffffffffff1673ffffffffffffffffffffffffffffffffffffffff1663a9059cbb613d62614d0a565b836040518363ffffffff1660e01b8152600401613d8092919061513d565b6020604051808303816000875af1158015613d9f573d6000803e3d6000fd5b505050506040513d601f19601f82011682018060405250810190613dc39190615192565b5050565b60056020528060005260406000206000915054906101000a900460ff1681565b60166020528060005260406000206000915090505481565b60096020528060005260406000206000915090505481565b601b6020528060005260406000206000915090505481565b613e37614d0a565b73ffffffffffffffffffffffffffffffffffffffff16613e556127e5565b73ffffffffffffffffffffffffffffffffffffffff1614613eab576040517f08c379a0000000000000000000000000000000000000000000000000000000008152600401613ea290615309565b60405180910390fd5b600073ffffffffffffffffffffffffffffffffffffffff168173ffffffffffffffffffffffffffffffffffffffff161415613f1b576040517f08c379a0000000000000000000000000000000000000000000000000000000008152600401613f129061566b565b60405180910390fd5b8073ffffffffffffffffffffffffffffffffffffffff1660008054906101000a900473ffffffffffffffffffffffffffffffffffffffff1673ffffffffffffffffffffffffffffffffffffffff167f8be0079c531659141344cd1fd0a4f28419497f9722a3daafe3b4186f6b6457e060405160405180910390a3806000806101000a81548173ffffffffffffffffffffffffffffffffffffffff021916908373ffffffffffffffffffffffffffffffffffffffff16021790555050565b60076020528060005260406000206000915090505481565b613ff8614d0a565b73ffffffffffffffffffffffffffffffffffffffff166140166127e5565b73ffffffffffffffffffffffffffffffffffffffff161461406c576040517f08c379a000000000000000000000000000000000000000000000000000000000815260040161406390615309565b60405180910390fd5b600073ffffffffffffffffffffffffffffffffffffffff168373ffffffffffffffffffffffffffffffffffffffff1614156140a657600080fd5b60011515600260008573ffffffffffffffffffffffffffffffffffffffff1673ffffffffffffffffffffffffffffffffffffffff16815260200190815260200160002060009054906101000a900460ff161515141561413a576040517f08c379a0000000000000000000000000000000000000000000000000000000008152600401614131906156d7565b60405180910390fd5b60011515600360008573ffffffffffffffffffffffffffffffffffffffff1673ffffffffffffffffffffffffffffffffffffffff16815260200190815260200160002060009054906101000a900460ff16151514156141ce576040517f08c379a00000000000000000000000000000000000000000000000000000000081526004016141c590615743565b60405180910390fd5b60011515600560008573ffffffffffffffffffffffffffffffffffffffff1673ffffffffffffffffffffffffffffffffffffffff16815260200190815260200160002060009054906101000a900460ff1615151415614262576040517f08c379a0000000000000000000000000000000000000000000000000000000008152600401614259906157d5565b60405180910390fd5b6000821161426f57600080fd5b6001600260008573ffffffffffffffffffffffffffffffffffffffff1673ffffffffffffffffffffffffffffffffffffffff16815260200190815260200160002060006101000a81548160ff0219169083151502179055506142dc60015482614d1290919063ffffffff16565b600660008573ffffffffffffffffffffffffffffffffffffffff1673ffffffffffffffffffffffffffffffffffffffff16815260200190815260200160002081905550614373600154600660008673ffffffffffffffffffffffffffffffffffffffff1673ffffffffffffffffffffffffffffffffffffffff16815260200190815260200160002054614d1290919063ffffffff16565b600760008573ffffffffffffffffffffffffffffffffffffffff1673ffffffffffffffffffffffffffffffffffffffff1681526020019081526020016000208190555061440a600154600760008673ffffffffffffffffffffffffffffffffffffffff1673ffffffffffffffffffffffffffffffffffffffff16815260200190815260200160002054614d1290919063ffffffff16565b600860008573ffffffffffffffffffffffffffffffffffffffff1673ffffffffffffffffffffffffffffffffffffffff168152602001908152602001600020819055506144a1600154600860008673ffffffffffffffffffffffffffffffffffffffff1673ffffffffffffffffffffffffffffffffffffffff16815260200190815260200160002054614d1290919063ffffffff16565b600960008573ffffffffffffffffffffffffffffffffffffffff1673ffffffffffffffffffffffffffffffffffffffff16815260200190815260200160002081905550614538600154600960008673ffffffffffffffffffffffffffffffffffffffff1673ffffffffffffffffffffffffffffffffffffffff16815260200190815260200160002054614d1290919063ffffffff16565b600a60008573ffffffffffffffffffffffffffffffffffffffff1673ffffffffffffffffffffffffffffffffffffffff168152602001908152602001600020819055506145cf600154600a60008673ffffffffffffffffffffffffffffffffffffffff1673ffffffffffffffffffffffffffffffffffffffff16815260200190815260200160002054614d1290919063ffffffff16565b600b60008573ffffffffffffffffffffffffffffffffffffffff1673ffffffffffffffffffffffffffffffffffffffff16815260200190815260200160002081905550614666600154600b60008673ffffffffffffffffffffffffffffffffffffffff1673ffffffffffffffffffffffffffffffffffffffff16815260200190815260200160002054614d1290919063ffffffff16565b600c60008573ffffffffffffffffffffffffffffffffffffffff1673ffffffffffffffffffffffffffffffffffffffff168152602001908152602001600020819055506146fd600154600c60008673ffffffffffffffffffffffffffffffffffffffff1673ffffffffffffffffffffffffffffffffffffffff16815260200190815260200160002054614d1290919063ffffffff16565b600d60008573ffffffffffffffffffffffffffffffffffffffff1673ffffffffffffffffffffffffffffffffffffffff16815260200190815260200160002081905550614794600154600d60008673ffffffffffffffffffffffffffffffffffffffff1673ffffffffffffffffffffffffffffffffffffffff16815260200190815260200160002054614d1290919063ffffffff16565b600e60008573ffffffffffffffffffffffffffffffffffffffff1673ffffffffffffffffffffffffffffffffffffffff1681526020019081526020016000208190555061482b600154600e60008673ffffffffffffffffffffffffffffffffffffffff1673ffffffffffffffffffffffffffffffffffffffff16815260200190815260200160002054614d1290919063ffffffff16565b600f60008573ffffffffffffffffffffffffffffffffffffffff1673ffffffffffffffffffffffffffffffffffffffff168152602001908152602001600020819055506148c2600154600f60008673ffffffffffffffffffffffffffffffffffffffff1673ffffffffffffffffffffffffffffffffffffffff16815260200190815260200160002054614d1290919063ffffffff16565b601060008573ffffffffffffffffffffffffffffffffffffffff1673ffffffffffffffffffffffffffffffffffffffff16815260200190815260200160002081905550614959600154601060008673ffffffffffffffffffffffffffffffffffffffff1673ffffffffffffffffffffffffffffffffffffffff16815260200190815260200160002054614d1290919063ffffffff16565b601160008573ffffffffffffffffffffffffffffffffffffffff1673ffffffffffffffffffffffffffffffffffffffff1681526020019081526020016000208190555060006149b2600c84614d2890919063ffffffff16565b905080601260008673ffffffffffffffffffffffffffffffffffffffff1673ffffffffffffffffffffffffffffffffffffffff1681526020019081526020016000208190555080601360008673ffffffffffffffffffffffffffffffffffffffff1673ffffffffffffffffffffffffffffffffffffffff1681526020019081526020016000208190555080601460008673ffffffffffffffffffffffffffffffffffffffff1673ffffffffffffffffffffffffffffffffffffffff1681526020019081526020016000208190555080601560008673ffffffffffffffffffffffffffffffffffffffff1673ffffffffffffffffffffffffffffffffffffffff1681526020019081526020016000208190555080601660008673ffffffffffffffffffffffffffffffffffffffff1673ffffffffffffffffffffffffffffffffffffffff1681526020019081526020016000208190555080601760008673ffffffffffffffffffffffffffffffffffffffff1673ffffffffffffffffffffffffffffffffffffffff1681526020019081526020016000208190555080601860008673ffffffffffffffffffffffffffffffffffffffff1673ffffffffffffffffffffffffffffffffffffffff1681526020019081526020016000208190555080601960008673ffffffffffffffffffffffffffffffffffffffff1673ffffffffffffffffffffffffffffffffffffffff1681526020019081526020016000208190555080601a60008673ffffffffffffffffffffffffffffffffffffffff1673ffffffffffffffffffffffffffffffffffffffff1681526020019081526020016000208190555080601b60008673ffffffffffffffffffffffffffffffffffffffff1673ffffffffffffffffffffffffffffffffffffffff1681526020019081526020016000208190555080601c60008673ffffffffffffffffffffffffffffffffffffffff1673ffffffffffffffffffffffffffffffffffffffff1681526020019081526020016000208190555080601d60008673ffffffffffffffffffffffffffffffffffffffff1673ffffffffffffffffffffffffffffffffffffffff1681526020019081526020016000208190555050505050565b60036020528060005260406000206000915054906101000a900460ff1681565b600033905090565b60008183614d209190615824565b905092915050565b60008183614d3691906158a9565b905092915050565b600080fd5b600073ffffffffffffffffffffffffffffffffffffffff82169050919050565b6000614d6e82614d43565b9050919050565b614d7e81614d63565b8114614d8957600080fd5b50565b600081359050614d9b81614d75565b92915050565b600060208284031215614db757614db6614d3e565b5b6000614dc584828501614d8c565b91505092915050565b6000819050919050565b614de181614dce565b82525050565b6000602082019050614dfc6000830184614dd8565b92915050565b614e0b81614dce565b8114614e1657600080fd5b50565b600081359050614e2881614e02565b92915050565b60008060408385031215614e4557614e44614d3e565b5b6000614e5385828601614d8c565b9250506020614e6485828601614e19565b9150509250929050565b60008115159050919050565b614e8381614e6e565b82525050565b6000602082019050614e9e6000830184614e7a565b92915050565b600080600060608486031215614ebd57614ebc614d3e565b5b6000614ecb86828701614d8c565b9350506020614edc86828701614d8c565b9250506040614eed86828701614e19565b9150509250925092565b614f0081614d63565b82525050565b6000602082019050614f1b6000830184614ef7565b92915050565b6000819050919050565b6000614f46614f41614f3c84614d43565b614f21565b614d43565b9050919050565b6000614f5882614f2b565b9050919050565b6000614f6a82614f4d565b9050919050565b614f7a81614f5f565b82525050565b6000602082019050614f956000830184614f71565b92915050565b600080600060608486031215614fb457614fb3614d3e565b5b6000614fc286828701614d8c565b9350506020614fd386828701614e19565b9250506040614fe486828701614e19565b9150509250925092565b6000806040838503121561500557615004614d3e565b5b600061501385828601614d8c565b925050602061502485828601614d8c565b9150509250929050565b600082825260208201905092915050565b7f596f75206d75737420626520616e2061637469766520656d706c6f7965652f7060008201527f6172746e657220746f2077697468647261770000000000000000000000000000602082015250565b600061509b60328361502e565b91506150a68261503f565b604082019050919050565b600060208201905081810360008301526150ca8161508e565b9050919050565b7f596f7572206d656d6265727368697020686173206265656e207265766f6b6564600082015250565b600061510760208361502e565b9150615112826150d1565b602082019050919050565b60006020820190508181036000830152615136816150fa565b9050919050565b60006040820190506151526000830185614ef7565b61515f6020830184614dd8565b9392505050565b61516f81614e6e565b811461517a57600080fd5b50565b60008151905061518c81615166565b92915050565b6000602082840312156151a8576151a7614d3e565b5b60006151b68482850161517d565b91505092915050565b7f5472616e73666572206661696c65642e00000000000000000000000000000000600082015250565b60006151f560108361502e565b9150615200826151bf565b602082019050919050565b60006020820190508181036000830152615224816151e8565b9050919050565b7f546865206e657874207363686564756c65206973206e6f74206475652079657460008201527f2e00000000000000000000000000000000000000000000000000000000000000602082015250565b600061528760218361502e565b91506152928261522b565b604082019050919050565b600060208201905081810360008301526152b68161527a565b9050919050565b7f4f776e61626c653a2063616c6c6572206973206e6f7420746865206f776e6572600082015250565b60006152f360208361502e565b91506152fe826152bd565b602082019050919050565b60006020820190508181036000830152615322816152e6565b9050919050565b7f506172746e6572732063616e6e6f74206265207265766f6b6564000000000000600082015250565b600061535f601a8361502e565b915061536a82615329565b602082019050919050565b6000602082019050818103600083015261538e81615352565b9050919050565b7f4f6e6c792061637469766520656d706c6f7965652063616e206265207265766f60008201527f6b65640000000000000000000000000000000000000000000000000000000000602082015250565b60006153f160238361502e565b91506153fc82615395565b604082019050919050565b60006020820190508181036000830152615420816153e4565b9050919050565b7f456d706c6f7965652068617320616c7265616479206265656e207265766f6b6560008201527f6400000000000000000000000000000000000000000000000000000000000000602082015250565b600061548360218361502e565b915061548e82615427565b604082019050919050565b600060208201905081810360008301526154b281615476565b9050919050565b7f506172746e657220616c72656164792061646465642e00000000000000000000600082015250565b60006154ef60168361502e565b91506154fa826154b9565b602082019050919050565b6000602082019050818103600083015261551e816154e2565b9050919050565b7f506172746e65722068617320616c726561647920636f6d706c6574656420746860008201527f652066756c6c207363686564756c650000000000000000000000000000000000602082015250565b6000615581602f8361502e565b915061558c82615525565b604082019050919050565b600060208201905081810360008301526155b081615574565b9050919050565b6000815190506155c681614e02565b92915050565b6000602082840312156155e2576155e1614d3e565b5b60006155f0848285016155b7565b91505092915050565b7f4f776e61626c653a206e6577206f776e657220697320746865207a65726f206160008201527f6464726573730000000000000000000000000000000000000000000000000000602082015250565b600061565560268361502e565b9150615660826155f9565b604082019050919050565b6000602082019050818103600083015261568481615648565b9050919050565b7f456d706c6f79656520616c726561647920657869737473000000000000000000600082015250565b60006156c160178361502e565b91506156cc8261568b565b602082019050919050565b600060208201905081810360008301526156f0816156b4565b9050919050565b7f5265766f6b656420656d706c6f7965652063616e6e6f74206265206164646564600082015250565b600061572d60208361502e565b9150615738826156f7565b602082019050919050565b6000602082019050818103600083015261575c81615720565b9050919050565b7f436f6d706c6574656c792076657374656420656d706c6f7965652063616e6e6f60008201527f7420626520616464656400000000000000000000000000000000000000000000602082015250565b60006157bf602a8361502e565b91506157ca82615763565b604082019050919050565b600060208201905081810360008301526157ee816157b2565b9050919050565b7f4e487b7100000000000000000000000000000000000000000000000000000000600052601160045260246000fd5b600061582f82614dce565b915061583a83614dce565b9250827fffffffffffffffffffffffffffffffffffffffffffffffffffffffffffffffff0382111561586f5761586e6157f5565b5b828201905092915050565b7f4e487b7100000000000000000000000000000000000000000000000000000000600052601260045260246000fd5b60006158b482614dce565b91506158bf83614dce565b9250826158cf576158ce61587a565b5b82820490509291505056fea2646970667358221220da1755a8d6ac9f59ff86504f8856e263f8369e22310491ea6d0b97cb93a0bc6b64736f6c634300080a0033",
  "immutableReferences": {},
  "source": "// SPDX-License-Identifier: MIT\npragma solidity ^0.8.0;\n\nimport \"./IERC20.sol\";\nimport \"./Ownable.sol\";\nimport \"./SafeMath.sol\";\n\ncontract KyoVesting is IERC20, Ownable {\n\tusing SafeMath for uint256;\n\n\tuint256 public interval;\n\n\tmapping (address => bool) public employee;\n\tmapping (address => bool) public revoked;\n\tmapping (address => bool) public partners;\n\tmapping (address => bool) public completed;\n\n\t//time\n\tmapping (address => uint256) public first_schedule;\n\tmapping (address => uint256) public second_schedule;\n\tmapping (address => uint256) public third_schedule;\n\tmapping (address => uint256) public fourth_schedule;\n\tmapping (address => uint256) public fifth_schedule;\n\tmapping (address => uint256) public sixth_schedule;\n\tmapping (address => uint256) public seventh_schedule;\n\tmapping (address => uint256) public eighth_schedule;\n\tmapping (address => uint256) public ninth_schedule;\n\tmapping (address => uint256) public tenth_schedule;\n\tmapping (address => uint256) public eleventh_schedule;\n\tmapping (address => uint256) public twelfth_schedule;\n\n\t//amount\n\tmapping (address => uint256) public first_payment;\n\tmapping (address => uint256) public second_payment;\n\tmapping (address => uint256) public third_payment;\n\tmapping (address => uint256) public fourth_payment;\n\tmapping (address => uint256) public fifth_payment;\n\tmapping (address => uint256) public sixth_payment;\n\tmapping (address => uint256) public seventh_payment;\n\tmapping (address => uint256) public eighth_payment;\n\tmapping (address => uint256) public ninth_payment;\n\tmapping (address => uint256) public tenth_payment;\n\tmapping (address => uint256) public eleventh_payment;\n\tmapping (address => uint256) public twelfth_payment;\n\n\tIERC20 public kyo;\n\n\tconstructor(address _kyo, uint256 _interval) {\n\t\tkyo = IERC20(_kyo);\n\t\tinterval = _interval;\n\t}\n\n\tfunction add_partner(address _partner, uint256 _amount, uint256 _startTime) public onlyOwner {\n\t\trequire(_partner != address(0));\n\t\trequire(partners[_partner] != true, \"Partner already added.\");\n\t\trequire(_amount > 0);\n\t\trequire(completed[_partner] != true, \"Partner has already completed the full schedule\");\n\t\temployee[_partner] = true;\n\t\tpartners[_partner] = true;\n\n\t\t// add timelocks to schedules\n\t\tfirst_schedule[_partner] = _startTime.add(interval);\n\t\tsecond_schedule[_partner] = first_schedule[_partner].add(interval);\n\t\tthird_schedule[_partner] = second_schedule[_partner].add(interval);\n\t\tfourth_schedule[_partner] = third_schedule[_partner].add(interval);\n\t\tfifth_schedule[_partner] = fourth_schedule[_partner].add(interval);\n\t\tsixth_schedule[_partner] = fifth_schedule[_partner].add(interval);\n\t\tseventh_schedule[_partner] = sixth_schedule[_partner].add(interval);\n\t\teighth_schedule[_partner] = seventh_schedule[_partner].add(interval);\n\t\tninth_schedule[_partner] = eighth_schedule[_partner].add(interval);\n\t\ttenth_schedule[_partner] = ninth_schedule[_partner].add(interval);\n\t\televenth_schedule[_partner] = tenth_schedule[_partner].add(interval);\n\t\ttwelfth_schedule[_partner] = eleventh_schedule[_partner].add(interval);\n\n\t\t//split amount into the schedules\n\t\tuint256 payment = _amount.div(12);\n\t\tfirst_payment[_partner] = payment;\n\t\tsecond_payment[_partner] = payment;\n\t\tthird_payment[_partner] = payment;\n\t\tfourth_payment[_partner] = payment;\n\t\tfifth_payment[_partner] = payment;\n\t\tsixth_payment[_partner] = payment;\n\t\tseventh_payment[_partner] = payment;\n\t\teighth_payment[_partner] = payment;\n\t\tninth_payment[_partner] = payment;\n\t\ttenth_payment[_partner] = payment;\n\t\televenth_payment[_partner] = payment;\n\t\ttwelfth_payment[_partner] = payment;\n\t}\n\n\tfunction add_employee(address _employee, uint256 _amount, uint256 _startTime) public onlyOwner {\n\t\trequire(_employee != address(0));\n\t\trequire(employee[_employee] != true, \"Employee already exists\");\n\t\trequire(revoked[_employee] != true, \"Revoked employee cannot be added\");\n\t\trequire(completed[_employee] != true, \"Completely vested employee cannot be added\");\n\t\trequire(_amount > 0);\n\t\temployee[_employee] = true;\n\n\t\t// add timelocks to schedules\n\t\tfirst_schedule[_employee] = _startTime.add(interval);\n\t\tsecond_schedule[_employee] = first_schedule[_employee].add(interval);\n\t\tthird_schedule[_employee] = second_schedule[_employee].add(interval);\n\t\tfourth_schedule[_employee] = third_schedule[_employee].add(interval);\n\t\tfifth_schedule[_employee] = fourth_schedule[_employee].add(interval);\n\t\tsixth_schedule[_employee] = fifth_schedule[_employee].add(interval);\n\t\tseventh_schedule[_employee] = sixth_schedule[_employee].add(interval);\n\t\teighth_schedule[_employee] = seventh_schedule[_employee].add(interval);\n\t\tninth_schedule[_employee] = eighth_schedule[_employee].add(interval);\n\t\ttenth_schedule[_employee] = ninth_schedule[_employee].add(interval);\n\t\televenth_schedule[_employee] = tenth_schedule[_employee].add(interval);\n\t\ttwelfth_schedule[_employee] = eleventh_schedule[_employee].add(interval);\n\n\t\t//split amount into the schedules\n\t\tuint256 payment = _amount.div(12);\n\t\tfirst_payment[_employee] = payment;\n\t\tsecond_payment[_employee] = payment;\n\t\tthird_payment[_employee] = payment;\n\t\tfourth_payment[_employee] = payment;\n\t\tfifth_payment[_employee] = payment;\n\t\tsixth_payment[_employee] = payment;\n\t\tseventh_payment[_employee] = payment;\n\t\teighth_payment[_employee] = payment;\n\t\tninth_payment[_employee] = payment;\n\t\ttenth_payment[_employee] = payment;\n\t\televenth_payment[_employee] = payment;\n\t\ttwelfth_payment[_employee] = payment;\n\t}\n\n\tfunction revoke_employee(address _employee) public onlyOwner {\n\t\trequire(_employee != address(0));\n\t\trequire(partners[_employee] != true, \"Partners cannot be revoked\");\n\t\trequire(employee[_employee] == true, \"Only active employee can be revoked\");\n\t\trequire(revoked[_employee] != true, \"Employee has already been revoked\");\n\n\t\temployee[_employee] = false;\n\t\trevoked[_employee] = true;\n\n\t\tfirst_payment[_employee] = 0;\n\t\tsecond_payment[_employee] = 0;\n\t\tthird_payment[_employee] = 0;\n\t\tfourth_payment[_employee] = 0;\n\t\tfifth_payment[_employee] = 0;\n\t\tsixth_payment[_employee] = 0;\n\t\tseventh_payment[_employee] = 0;\n\t\teighth_payment[_employee] = 0;\n\t\tninth_payment[_employee] = 0;\n\t\ttenth_payment[_employee] = 0;\n\t\televenth_payment[_employee] = 0;\n\t\ttwelfth_payment[_employee] = 0;\n\t}\n\n\tfunction withdraw() public returns (bool) {\n\t\trequire(employee[_msgSender()] == true, \"You must be an active employee/partner to withdraw\");\n\t\trequire(revoked[_msgSender()] != true, \"Your membership has been revoked\");\n\t\t\n\t\tif (block.timestamp > first_schedule[_msgSender()] && first_payment[_msgSender()] > 0) {\n\t\t\trequire(kyo.transfer(_msgSender(), first_payment[_msgSender()]), \"Transfer failed.\");\n\t\t\tfirst_payment[_msgSender()] = 0;\n\t\t\treturn true;\n\t\t} else if (block.timestamp > second_schedule[_msgSender()] && second_payment[_msgSender()] > 0) {\n\t\t\trequire(kyo.transfer(_msgSender(), second_payment[_msgSender()]), \"Transfer failed.\");\n\t\t\tsecond_payment[_msgSender()] = 0;\n\t\t\treturn true;\n\t\t} else if (block.timestamp > third_schedule[_msgSender()] && third_payment[_msgSender()] > 0) {\n\t\t\trequire(kyo.transfer(_msgSender(), third_payment[_msgSender()]), \"Transfer failed.\");\n\t\t\tthird_payment[_msgSender()] = 0;\n\t\t\treturn true;\n\t\t} else if (block.timestamp > fourth_schedule[_msgSender()] && fourth_payment[_msgSender()] > 0) {\n\t\t\trequire(kyo.transfer(_msgSender(), fourth_payment[_msgSender()]), \"Transfer failed.\");\n\t\t\tfourth_payment[_msgSender()] = 0;\n\t\t\treturn true;\n\t\t} else if (block.timestamp > fifth_schedule[_msgSender()] && fifth_payment[_msgSender()] > 0) {\n\t\t\trequire(kyo.transfer(_msgSender(), fifth_payment[_msgSender()]), \"Transfer failed.\");\n\t\t\tfifth_payment[_msgSender()] = 0;\n\t\t\treturn true;\n\t\t} else if (block.timestamp > sixth_schedule[_msgSender()] && sixth_payment[_msgSender()] > 0) {\n\t\t\trequire(kyo.transfer(_msgSender(), sixth_payment[_msgSender()]), \"Transfer failed.\");\n\t\t\tsixth_payment[_msgSender()] = 0;\n\t\t\treturn true;\n\t\t} else if (block.timestamp > seventh_schedule[_msgSender()] && seventh_payment[_msgSender()] > 0) {\n\t\t\trequire(kyo.transfer(_msgSender(), seventh_payment[_msgSender()]), \"Transfer failed.\");\n\t\t\tseventh_payment[_msgSender()] = 0;\n\t\t\treturn true;\n\t\t} else if (block.timestamp > eighth_schedule[_msgSender()] && eighth_payment[_msgSender()] > 0) {\n\t\t\trequire(kyo.transfer(_msgSender(), eighth_payment[_msgSender()]), \"Transfer failed.\");\n\t\t\teighth_payment[_msgSender()] = 0;\n\t\t\treturn true;\n\t\t} else if (block.timestamp > ninth_schedule[_msgSender()] && ninth_payment[_msgSender()] > 0) {\n\t\t\trequire(kyo.transfer(_msgSender(), ninth_payment[_msgSender()]), \"Transfer failed.\");\n\t\t\tninth_payment[_msgSender()] = 0;\n\t\t\treturn true;\n\t\t} else if (block.timestamp > tenth_schedule[_msgSender()] && tenth_payment[_msgSender()] > 0) {\n\t\t\trequire(kyo.transfer(_msgSender(), tenth_payment[_msgSender()]), \"Transfer failed.\");\n\t\t\ttenth_payment[_msgSender()] = 0;\n\t\t\treturn true;\n\t\t} else if (block.timestamp > eleventh_schedule[_msgSender()] && eleventh_payment[_msgSender()] > 0) {\n\t\t\trequire(kyo.transfer(_msgSender(), eleventh_payment[_msgSender()]), \"Transfer failed.\");\n\t\t\televenth_payment[_msgSender()] = 0;\n\t\t\treturn true;\n\t\t} else if (block.timestamp > twelfth_schedule[_msgSender()] && twelfth_payment[_msgSender()] > 0) {\n\t\t\trequire(kyo.transfer(_msgSender(), twelfth_payment[_msgSender()]), \"Transfer failed.\");\n\t\t\ttwelfth_payment[_msgSender()] = 0;\n\t\t\treturn true;\n\t\t} else {\n\t\t\trequire(block.timestamp < 1, \"The next schedule is not due yet.\");\n\t\t}\n\t\treturn false;\n\t}\n\n\tfunction withdraw_remaining_balance() public onlyOwner {\n\t\tuint256 bal = kyo.balanceOf(address(this));\n\t\tkyo.transfer(_msgSender(), bal);\n\t}\n\n\tfunction current_time() public view returns (uint256) {\n\t\tuint256 time = block.timestamp;\n\t\treturn time;\n\t}\n\n\t//IERC20 implementations\n\tfunction allowance(address owner, address spender) external virtual override view returns (uint256) {}\n\tfunction approve(address spender, uint256 amount) external virtual override returns (bool) {}\n\tfunction balanceOf(address account) external virtual override view returns (uint256) {}\n\tfunction totalSupply() external virtual override view returns (uint256) {}\n\tfunction transfer(address recipient, uint256 amount) external virtual override returns (bool) {}\n\tfunction transferFrom(address sender, address recipient, uint256 amount) external virtual override returns (bool) {}\n}",
  "sourcePath": "/home/aman/kyotoswap/kyotovesting/src/contracts/KyoVesting.sol",
  "compiler": {
    "name": "solc",
    "version": "0.8.10+commit.fc410830.Emscripten.clang"
  },
  "schemaVersion": "3.4.3",
  "updatedAt": "2021-11-29T09:07:07.690Z",
  "devdoc": {
    "kind": "dev",
    "methods": {
      "allowance(address,address)": {
        "details": "Returns the remaining number of tokens that `spender` will be allowed to spend on behalf of `owner` through {transferFrom}. This is zero by default. This value changes when {approve} or {transferFrom} are called."
      },
      "approve(address,uint256)": {
        "details": "Sets `amount` as the allowance of `spender` over the caller's tokens. Returns a boolean value indicating whether the operation succeeded. IMPORTANT: Beware that changing an allowance with this method brings the risk that someone may use both the old and the new allowance by unfortunate transaction ordering. One possible solution to mitigate this race condition is to first reduce the spender's allowance to 0 and set the desired value afterwards: https://github.com/ethereum/EIPs/issues/20#issuecomment-263524729 Emits an {Approval} event."
      },
      "balanceOf(address)": {
        "details": "Returns the amount of tokens owned by `account`."
      },
      "owner()": {
        "details": "Returns the address of the current owner."
      },
      "renounceOwnership()": {
        "details": "Leaves the contract without owner. It will not be possible to call `onlyOwner` functions anymore. Can only be called by the current owner. NOTE: Renouncing ownership will leave the contract without an owner, thereby removing any functionality that is only available to the owner."
      },
      "totalSupply()": {
        "details": "Returns the amount of tokens in existence."
      },
      "transfer(address,uint256)": {
        "details": "Moves `amount` tokens from the caller's account to `recipient`. Returns a boolean value indicating whether the operation succeeded. Emits a {Transfer} event."
      },
      "transferFrom(address,address,uint256)": {
        "details": "Moves `amount` tokens from `sender` to `recipient` using the allowance mechanism. `amount` is then deducted from the caller's allowance. Returns a boolean value indicating whether the operation succeeded. Emits a {Transfer} event."
      },
      "transferOwnership(address)": {
        "details": "Transfers ownership of the contract to a new account (`newOwner`). Can only be called by the current owner."
      }
    },
    "version": 1
  },
  "userdoc": {
    "kind": "user",
    "methods": {},
    "version": 1
  }
}