{
  "contractName": "KyoVesting",
  "abi": [
    {
      "inputs": [
        {
          "internalType": "address",
          "name": "_kyo",
          "type": "address"
        },
        {
          "internalType": "uint256",
          "name": "_interval",
          "type": "uint256"
        }
      ],
      "stateMutability": "nonpayable",
      "type": "constructor"
    },
    {
      "anonymous": false,
      "inputs": [
        {
          "indexed": true,
          "internalType": "address",
          "name": "owner",
          "type": "address"
        },
        {
          "indexed": true,
          "internalType": "address",
          "name": "spender",
          "type": "address"
        },
        {
          "indexed": false,
          "internalType": "uint256",
          "name": "value",
          "type": "uint256"
        }
      ],
      "name": "Approval",
      "type": "event"
    },
    {
      "anonymous": false,
      "inputs": [
        {
          "indexed": true,
          "internalType": "address",
          "name": "previousOwner",
          "type": "address"
        },
        {
          "indexed": true,
          "internalType": "address",
          "name": "newOwner",
          "type": "address"
        }
      ],
      "name": "OwnershipTransferred",
      "type": "event"
    },
    {
      "anonymous": false,
      "inputs": [
        {
          "indexed": true,
          "internalType": "address",
          "name": "from",
          "type": "address"
        },
        {
          "indexed": true,
          "internalType": "address",
          "name": "to",
          "type": "address"
        },
        {
          "indexed": false,
          "internalType": "uint256",
          "name": "value",
          "type": "uint256"
        }
      ],
      "name": "Transfer",
      "type": "event"
    },
    {
      "inputs": [
        {
          "internalType": "address",
          "name": "",
          "type": "address"
        }
      ],
      "name": "completed",
      "outputs": [
        {
          "internalType": "bool",
          "name": "",
          "type": "bool"
        }
      ],
      "stateMutability": "view",
      "type": "function",
      "constant": true
    },
    {
      "inputs": [
        {
          "internalType": "address",
          "name": "",
          "type": "address"
        }
      ],
      "name": "eighth_payment",
      "outputs": [
        {
          "internalType": "uint256",
          "name": "",
          "type": "uint256"
        }
      ],
      "stateMutability": "view",
      "type": "function",
      "constant": true
    },
    {
      "inputs": [
        {
          "internalType": "address",
          "name": "",
          "type": "address"
        }
      ],
      "name": "eighth_schedule",
      "outputs": [
        {
          "internalType": "uint256",
          "name": "",
          "type": "uint256"
        }
      ],
      "stateMutability": "view",
      "type": "function",
      "constant": true
    },
    {
      "inputs": [
        {
          "internalType": "address",
          "name": "",
          "type": "address"
        }
      ],
      "name": "eleventh_payment",
      "outputs": [
        {
          "internalType": "uint256",
          "name": "",
          "type": "uint256"
        }
      ],
      "stateMutability": "view",
      "type": "function",
      "constant": true
    },
    {
      "inputs": [
        {
          "internalType": "address",
          "name": "",
          "type": "address"
        }
      ],
      "name": "eleventh_schedule",
      "outputs": [
        {
          "internalType": "uint256",
          "name": "",
          "type": "uint256"
        }
      ],
      "stateMutability": "view",
      "type": "function",
      "constant": true
    },
    {
      "inputs": [
        {
          "internalType": "address",
          "name": "",
          "type": "address"
        }
      ],
      "name": "employee",
      "outputs": [
        {
          "internalType": "bool",
          "name": "",
          "type": "bool"
        }
      ],
      "stateMutability": "view",
      "type": "function",
      "constant": true
    },
    {
      "inputs": [
        {
          "internalType": "address",
          "name": "",
          "type": "address"
        }
      ],
      "name": "fifth_payment",
      "outputs": [
        {
          "internalType": "uint256",
          "name": "",
          "type": "uint256"
        }
      ],
      "stateMutability": "view",
      "type": "function",
      "constant": true
    },
    {
      "inputs": [
        {
          "internalType": "address",
          "name": "",
          "type": "address"
        }
      ],
      "name": "fifth_schedule",
      "outputs": [
        {
          "internalType": "uint256",
          "name": "",
          "type": "uint256"
        }
      ],
      "stateMutability": "view",
      "type": "function",
      "constant": true
    },
    {
      "inputs": [
        {
          "internalType": "address",
          "name": "",
          "type": "address"
        }
      ],
      "name": "first_payment",
      "outputs": [
        {
          "internalType": "uint256",
          "name": "",
          "type": "uint256"
        }
      ],
      "stateMutability": "view",
      "type": "function",
      "constant": true
    },
    {
      "inputs": [
        {
          "internalType": "address",
          "name": "",
          "type": "address"
        }
      ],
      "name": "first_schedule",
      "outputs": [
        {
          "internalType": "uint256",
          "name": "",
          "type": "uint256"
        }
      ],
      "stateMutability": "view",
      "type": "function",
      "constant": true
    },
    {
      "inputs": [
        {
          "internalType": "address",
          "name": "",
          "type": "address"
        }
      ],
      "name": "fourth_payment",
      "outputs": [
        {
          "internalType": "uint256",
          "name": "",
          "type": "uint256"
        }
      ],
      "stateMutability": "view",
      "type": "function",
      "constant": true
    },
    {
      "inputs": [
        {
          "internalType": "address",
          "name": "",
          "type": "address"
        }
      ],
      "name": "fourth_schedule",
      "outputs": [
        {
          "internalType": "uint256",
          "name": "",
          "type": "uint256"
        }
      ],
      "stateMutability": "view",
      "type": "function",
      "constant": true
    },
    {
      "inputs": [],
      "name": "interval",
      "outputs": [
        {
          "internalType": "uint256",
          "name": "",
          "type": "uint256"
        }
      ],
      "stateMutability": "view",
      "type": "function",
      "constant": true
    },
    {
      "inputs": [],
      "name": "kyo",
      "outputs": [
        {
          "internalType": "contract IERC20",
          "name": "",
          "type": "address"
        }
      ],
      "stateMutability": "view",
      "type": "function",
      "constant": true
    },
    {
      "inputs": [
        {
          "internalType": "address",
          "name": "",
          "type": "address"
        }
      ],
      "name": "ninth_payment",
      "outputs": [
        {
          "internalType": "uint256",
          "name": "",
          "type": "uint256"
        }
      ],
      "stateMutability": "view",
      "type": "function",
      "constant": true
    },
    {
      "inputs": [
        {
          "internalType": "address",
          "name": "",
          "type": "address"
        }
      ],
      "name": "ninth_schedule",
      "outputs": [
        {
          "internalType": "uint256",
          "name": "",
          "type": "uint256"
        }
      ],
      "stateMutability": "view",
      "type": "function",
      "constant": true
    },
    {
      "inputs": [],
      "name": "owner",
      "outputs": [
        {
          "internalType": "address",
          "name": "",
          "type": "address"
        }
      ],
      "stateMutability": "view",
      "type": "function",
      "constant": true
    },
    {
      "inputs": [
        {
          "internalType": "address",
          "name": "",
          "type": "address"
        }
      ],
      "name": "partners",
      "outputs": [
        {
          "internalType": "bool",
          "name": "",
          "type": "bool"
        }
      ],
      "stateMutability": "view",
      "type": "function",
      "constant": true
    },
    {
      "inputs": [],
      "name": "renounceOwnership",
      "outputs": [],
      "stateMutability": "nonpayable",
      "type": "function"
    },
    {
      "inputs": [
        {
          "internalType": "address",
          "name": "",
          "type": "address"
        }
      ],
      "name": "revoked",
      "outputs": [
        {
          "internalType": "bool",
          "name": "",
          "type": "bool"
        }
      ],
      "stateMutability": "view",
      "type": "function",
      "constant": true
    },
    {
      "inputs": [
        {
          "internalType": "address",
          "name": "",
          "type": "address"
        }
      ],
      "name": "second_payment",
      "outputs": [
        {
          "internalType": "uint256",
          "name": "",
          "type": "uint256"
        }
      ],
      "stateMutability": "view",
      "type": "function",
      "constant": true
    },
    {
      "inputs": [
        {
          "internalType": "address",
          "name": "",
          "type": "address"
        }
      ],
      "name": "second_schedule",
      "outputs": [
        {
          "internalType": "uint256",
          "name": "",
          "type": "uint256"
        }
      ],
      "stateMutability": "view",
      "type": "function",
      "constant": true
    },
    {
      "inputs": [
        {
          "internalType": "address",
          "name": "",
          "type": "address"
        }
      ],
      "name": "seventh_payment",
      "outputs": [
        {
          "internalType": "uint256",
          "name": "",
          "type": "uint256"
        }
      ],
      "stateMutability": "view",
      "type": "function",
      "constant": true
    },
    {
      "inputs": [
        {
          "internalType": "address",
          "name": "",
          "type": "address"
        }
      ],
      "name": "seventh_schedule",
      "outputs": [
        {
          "internalType": "uint256",
          "name": "",
          "type": "uint256"
        }
      ],
      "stateMutability": "view",
      "type": "function",
      "constant": true
    },
    {
      "inputs": [
        {
          "internalType": "address",
          "name": "",
          "type": "address"
        }
      ],
      "name": "sixth_payment",
      "outputs": [
        {
          "internalType": "uint256",
          "name": "",
          "type": "uint256"
        }
      ],
      "stateMutability": "view",
      "type": "function",
      "constant": true
    },
    {
      "inputs": [
        {
          "internalType": "address",
          "name": "",
          "type": "address"
        }
      ],
      "name": "sixth_schedule",
      "outputs": [
        {
          "internalType": "uint256",
          "name": "",
          "type": "uint256"
        }
      ],
      "stateMutability": "view",
      "type": "function",
      "constant": true
    },
    {
      "inputs": [
        {
          "internalType": "address",
          "name": "",
          "type": "address"
        }
      ],
      "name": "tenth_payment",
      "outputs": [
        {
          "internalType": "uint256",
          "name": "",
          "type": "uint256"
        }
      ],
      "stateMutability": "view",
      "type": "function",
      "constant": true
    },
    {
      "inputs": [
        {
          "internalType": "address",
          "name": "",
          "type": "address"
        }
      ],
      "name": "tenth_schedule",
      "outputs": [
        {
          "internalType": "uint256",
          "name": "",
          "type": "uint256"
        }
      ],
      "stateMutability": "view",
      "type": "function",
      "constant": true
    },
    {
      "inputs": [
        {
          "internalType": "address",
          "name": "",
          "type": "address"
        }
      ],
      "name": "third_payment",
      "outputs": [
        {
          "internalType": "uint256",
          "name": "",
          "type": "uint256"
        }
      ],
      "stateMutability": "view",
      "type": "function",
      "constant": true
    },
    {
      "inputs": [
        {
          "internalType": "address",
          "name": "",
          "type": "address"
        }
      ],
      "name": "third_schedule",
      "outputs": [
        {
          "internalType": "uint256",
          "name": "",
          "type": "uint256"
        }
      ],
      "stateMutability": "view",
      "type": "function",
      "constant": true
    },
    {
      "inputs": [
        {
          "internalType": "address",
          "name": "newOwner",
          "type": "address"
        }
      ],
      "name": "transferOwnership",
      "outputs": [],
      "stateMutability": "nonpayable",
      "type": "function"
    },
    {
      "inputs": [
        {
          "internalType": "address",
          "name": "",
          "type": "address"
        }
      ],
      "name": "twelfth_payment",
      "outputs": [
        {
          "internalType": "uint256",
          "name": "",
          "type": "uint256"
        }
      ],
      "stateMutability": "view",
      "type": "function",
      "constant": true
    },
    {
      "inputs": [
        {
          "internalType": "address",
          "name": "",
          "type": "address"
        }
      ],
      "name": "twelfth_schedule",
      "outputs": [
        {
          "internalType": "uint256",
          "name": "",
          "type": "uint256"
        }
      ],
      "stateMutability": "view",
      "type": "function",
      "constant": true
    },
    {
      "inputs": [
        {
          "internalType": "address",
          "name": "_partner",
          "type": "address"
        },
        {
          "internalType": "uint256",
          "name": "_amount",
          "type": "uint256"
        }
      ],
      "name": "add_partner",
      "outputs": [],
      "stateMutability": "nonpayable",
      "type": "function"
    },
    {
      "inputs": [
        {
          "internalType": "address",
          "name": "_employee",
          "type": "address"
        },
        {
          "internalType": "uint256",
          "name": "_amount",
          "type": "uint256"
        }
      ],
      "name": "add_employee",
      "outputs": [],
      "stateMutability": "nonpayable",
      "type": "function"
    },
    {
      "inputs": [
        {
          "internalType": "address",
          "name": "_employee",
          "type": "address"
        }
      ],
      "name": "revoke_employee",
      "outputs": [],
      "stateMutability": "nonpayable",
      "type": "function"
    },
    {
      "inputs": [],
      "name": "withdraw",
      "outputs": [
        {
          "internalType": "bool",
          "name": "",
          "type": "bool"
        }
      ],
      "stateMutability": "nonpayable",
      "type": "function"
    },
    {
      "inputs": [],
      "name": "withdraw_remaining_balance",
      "outputs": [],
      "stateMutability": "nonpayable",
      "type": "function"
    },
    {
      "inputs": [],
      "name": "current_time",
      "outputs": [
        {
          "internalType": "uint256",
          "name": "",
          "type": "uint256"
        }
      ],
      "stateMutability": "view",
      "type": "function",
      "constant": true
    },
    {
      "inputs": [
        {
          "internalType": "address",
          "name": "owner",
          "type": "address"
        },
        {
          "internalType": "address",
          "name": "spender",
          "type": "address"
        }
      ],
      "name": "allowance",
      "outputs": [
        {
          "internalType": "uint256",
          "name": "",
          "type": "uint256"
        }
      ],
      "stateMutability": "view",
      "type": "function",
      "constant": true
    },
    {
      "inputs": [
        {
          "internalType": "address",
          "name": "spender",
          "type": "address"
        },
        {
          "internalType": "uint256",
          "name": "amount",
          "type": "uint256"
        }
      ],
      "name": "approve",
      "outputs": [
        {
          "internalType": "bool",
          "name": "",
          "type": "bool"
        }
      ],
      "stateMutability": "nonpayable",
      "type": "function"
    },
    {
      "inputs": [
        {
          "internalType": "address",
          "name": "account",
          "type": "address"
        }
      ],
      "name": "balanceOf",
      "outputs": [
        {
          "internalType": "uint256",
          "name": "",
          "type": "uint256"
        }
      ],
      "stateMutability": "view",
      "type": "function",
      "constant": true
    },
    {
      "inputs": [],
      "name": "totalSupply",
      "outputs": [
        {
          "internalType": "uint256",
          "name": "",
          "type": "uint256"
        }
      ],
      "stateMutability": "view",
      "type": "function",
      "constant": true
    },
    {
      "inputs": [
        {
          "internalType": "address",
          "name": "recipient",
          "type": "address"
        },
        {
          "internalType": "uint256",
          "name": "amount",
          "type": "uint256"
        }
      ],
      "name": "transfer",
      "outputs": [
        {
          "internalType": "bool",
          "name": "",
          "type": "bool"
        }
      ],
      "stateMutability": "nonpayable",
      "type": "function"
    },
    {
      "inputs": [
        {
          "internalType": "address",
          "name": "sender",
          "type": "address"
        },
        {
          "internalType": "address",
          "name": "recipient",
          "type": "address"
        },
        {
          "internalType": "uint256",
          "name": "amount",
          "type": "uint256"
        }
      ],
      "name": "transferFrom",
      "outputs": [
        {
          "internalType": "bool",
          "name": "",
          "type": "bool"
        }
      ],
      "stateMutability": "nonpayable",
      "type": "function"
    }
  ],
  "bytecode": "0x60806040523480156200001157600080fd5b5060405162005b0238038062005b028339818101604052810190620000379190620001e4565b6000620000496200013760201b60201c565b9050806000806101000a81548173ffffffffffffffffffffffffffffffffffffffff021916908373ffffffffffffffffffffffffffffffffffffffff1602179055508073ffffffffffffffffffffffffffffffffffffffff16600073ffffffffffffffffffffffffffffffffffffffff167f8be0079c531659141344cd1fd0a4f28419497f9722a3daafe3b4186f6b6457e060405160405180910390a35081601e60006101000a81548173ffffffffffffffffffffffffffffffffffffffff021916908373ffffffffffffffffffffffffffffffffffffffff1602179055508060018190555050506200022b565b600033905090565b600080fd5b600073ffffffffffffffffffffffffffffffffffffffff82169050919050565b6000620001718262000144565b9050919050565b620001838162000164565b81146200018f57600080fd5b50565b600081519050620001a38162000178565b92915050565b6000819050919050565b620001be81620001a9565b8114620001ca57600080fd5b50565b600081519050620001de81620001b3565b92915050565b60008060408385031215620001fe57620001fd6200013f565b5b60006200020e8582860162000192565b92505060206200022185828601620001cd565b9150509250929050565b6158c7806200023b6000396000f3fe608060405234801561001057600080fd5b506004361061027e5760003560e01c806372cc3d331161015c578063cbca9f9f116100ce578063ea74b92711610087578063ea74b927146108df578063eaf064b71461090f578063ec9fbf561461093f578063f2fde38b1461096f578063f40b7d6b1461098b578063fa01dc06146109bb5761027e565b8063cbca9f9f146107e5578063d424960214610815578063dd62ed3e14610845578063de1dea4f14610875578063dfc51b6e146108a5578063e420bdf4146108af5761027e565b8063947a36fb11610120578063947a36fb146106e957806395c336521461070757806398f70aa0146107375780639961843914610767578063a9059cbb14610785578063b2a04298146107b55761027e565b806372cc3d331461061f5780637785242e1461064f5780637e12cc2a1461067f5780638da5cb5b146106af5780638ef089ae146106cd5761027e565b8063311ec23a116101f55780634a924911116101b95780634a9249111461052557806354834ce0146105555780635e4f6e43146105855780636b3a3c5b146105b557806370a08231146105e5578063715018a6146106155761027e565b8063311ec23a146104595780633b320994146104895780633ccfd60b146104a75780633e9929f1146104c557806348616164146104f55761027e565b80630e04e957116102475780630e04e9571461037357806318160ddd1461038f5780631b81d9d1146103ad57806323b872dd146103c957806323df4469146103f95780632c7b0363146104295761027e565b8062d827041461028357806301a17d76146102b3578063095ea7b3146102e357806309d495fd146103135780630ceb4c8114610343575b600080fd5b61029d60048036038101906102989190614dab565b6109eb565b6040516102aa9190614df1565b60405180910390f35b6102cd60048036038101906102c89190614dab565b610a03565b6040516102da9190614df1565b60405180910390f35b6102fd60048036038101906102f89190614e38565b610a1b565b60405161030a9190614e93565b60405180910390f35b61032d60048036038101906103289190614dab565b610a23565b60405161033a9190614e93565b60405180910390f35b61035d60048036038101906103589190614dab565b610a43565b60405161036a9190614df1565b60405180910390f35b61038d60048036038101906103889190614e38565b610a5b565b005b61039761171e565b6040516103a49190614df1565b60405180910390f35b6103c760048036038101906103c29190614e38565b611723565b005b6103e360048036038101906103de9190614eae565b612422565b6040516103f09190614e93565b60405180910390f35b610413600480360381019061040e9190614dab565b61242b565b6040516104209190614df1565b60405180910390f35b610443600480360381019061043e9190614dab565b612443565b6040516104509190614df1565b60405180910390f35b610473600480360381019061046e9190614dab565b61245b565b6040516104809190614df1565b60405180910390f35b610491612473565b60405161049e9190614df1565b60405180910390f35b6104af612480565b6040516104bc9190614e93565b60405180910390f35b6104df60048036038101906104da9190614dab565b613f8e565b6040516104ec9190614df1565b60405180910390f35b61050f600480360381019061050a9190614dab565b613fa6565b60405161051c9190614df1565b60405180910390f35b61053f600480360381019061053a9190614dab565b613fbe565b60405161054c9190614df1565b60405180910390f35b61056f600480360381019061056a9190614dab565b613fd6565b60405161057c9190614df1565b60405180910390f35b61059f600480360381019061059a9190614dab565b613fee565b6040516105ac9190614df1565b60405180910390f35b6105cf60048036038101906105ca9190614dab565b614006565b6040516105dc9190614df1565b60405180910390f35b6105ff60048036038101906105fa9190614dab565b61401e565b60405161060c9190614df1565b60405180910390f35b61061d614025565b005b61063960048036038101906106349190614dab565b61415f565b6040516106469190614df1565b60405180910390f35b61066960048036038101906106649190614dab565b614177565b6040516106769190614df1565b60405180910390f35b61069960048036038101906106949190614dab565b61418f565b6040516106a69190614df1565b60405180910390f35b6106b76141a7565b6040516106c49190614f10565b60405180910390f35b6106e760048036038101906106e29190614dab565b6141d0565b005b6106f1614830565b6040516106fe9190614df1565b60405180910390f35b610721600480360381019061071c9190614dab565b614836565b60405161072e9190614e93565b60405180910390f35b610751600480360381019061074c9190614dab565b614856565b60405161075e9190614df1565b60405180910390f35b61076f61486e565b60405161077c9190614f8a565b60405180910390f35b61079f600480360381019061079a9190614e38565b614894565b6040516107ac9190614e93565b60405180910390f35b6107cf60048036038101906107ca9190614dab565b61489c565b6040516107dc9190614df1565b60405180910390f35b6107ff60048036038101906107fa9190614dab565b6148b4565b60405161080c9190614df1565b60405180910390f35b61082f600480360381019061082a9190614dab565b6148cc565b60405161083c9190614df1565b60405180910390f35b61085f600480360381019061085a9190614fa5565b6148e4565b60405161086c9190614df1565b60405180910390f35b61088f600480360381019061088a9190614dab565b6148ec565b60405161089c9190614df1565b60405180910390f35b6108ad614904565b005b6108c960048036038101906108c49190614dab565b614acb565b6040516108d69190614e93565b60405180910390f35b6108f960048036038101906108f49190614dab565b614aeb565b6040516109069190614df1565b60405180910390f35b61092960048036038101906109249190614dab565b614b03565b6040516109369190614df1565b60405180910390f35b61095960048036038101906109549190614dab565b614b1b565b6040516109669190614df1565b60405180910390f35b61098960048036038101906109849190614dab565b614b33565b005b6109a560048036038101906109a09190614dab565b614cdc565b6040516109b29190614df1565b60405180910390f35b6109d560048036038101906109d09190614dab565b614cf4565b6040516109e29190614e93565b60405180910390f35b60086020528060005260406000206000915090505481565b60196020528060005260406000206000915090505481565b600092915050565b60026020528060005260406000206000915054906101000a900460ff1681565b60136020528060005260406000206000915090505481565b610a63614d14565b73ffffffffffffffffffffffffffffffffffffffff16610a816141a7565b73ffffffffffffffffffffffffffffffffffffffff1614610ad7576040517f08c379a0000000000000000000000000000000000000000000000000000000008152600401610ace90615042565b60405180910390fd5b600073ffffffffffffffffffffffffffffffffffffffff168273ffffffffffffffffffffffffffffffffffffffff161415610b1157600080fd5b60011515600460008473ffffffffffffffffffffffffffffffffffffffff1673ffffffffffffffffffffffffffffffffffffffff16815260200190815260200160002060009054906101000a900460ff1615151415610ba5576040517f08c379a0000000000000000000000000000000000000000000000000000000008152600401610b9c906150ae565b60405180910390fd5b60008111610bb257600080fd5b60011515600560008473ffffffffffffffffffffffffffffffffffffffff1673ffffffffffffffffffffffffffffffffffffffff16815260200190815260200160002060009054906101000a900460ff1615151415610c46576040517f08c379a0000000000000000000000000000000000000000000000000000000008152600401610c3d90615140565b60405180910390fd5b6001600260008473ffffffffffffffffffffffffffffffffffffffff1673ffffffffffffffffffffffffffffffffffffffff16815260200190815260200160002060006101000a81548160ff0219169083151502179055506001600460008473ffffffffffffffffffffffffffffffffffffffff1673ffffffffffffffffffffffffffffffffffffffff16815260200190815260200160002060006101000a81548160ff0219169083151502179055506000429050610d1060015482614d1c90919063ffffffff16565b600660008573ffffffffffffffffffffffffffffffffffffffff1673ffffffffffffffffffffffffffffffffffffffff16815260200190815260200160002081905550610da7600154600660008673ffffffffffffffffffffffffffffffffffffffff1673ffffffffffffffffffffffffffffffffffffffff16815260200190815260200160002054614d1c90919063ffffffff16565b600760008573ffffffffffffffffffffffffffffffffffffffff1673ffffffffffffffffffffffffffffffffffffffff16815260200190815260200160002081905550610e3e600154600760008673ffffffffffffffffffffffffffffffffffffffff1673ffffffffffffffffffffffffffffffffffffffff16815260200190815260200160002054614d1c90919063ffffffff16565b600860008573ffffffffffffffffffffffffffffffffffffffff1673ffffffffffffffffffffffffffffffffffffffff16815260200190815260200160002081905550610ed5600154600860008673ffffffffffffffffffffffffffffffffffffffff1673ffffffffffffffffffffffffffffffffffffffff16815260200190815260200160002054614d1c90919063ffffffff16565b600960008573ffffffffffffffffffffffffffffffffffffffff1673ffffffffffffffffffffffffffffffffffffffff16815260200190815260200160002081905550610f6c600154600960008673ffffffffffffffffffffffffffffffffffffffff1673ffffffffffffffffffffffffffffffffffffffff16815260200190815260200160002054614d1c90919063ffffffff16565b600a60008573ffffffffffffffffffffffffffffffffffffffff1673ffffffffffffffffffffffffffffffffffffffff16815260200190815260200160002081905550611003600154600a60008673ffffffffffffffffffffffffffffffffffffffff1673ffffffffffffffffffffffffffffffffffffffff16815260200190815260200160002054614d1c90919063ffffffff16565b600b60008573ffffffffffffffffffffffffffffffffffffffff1673ffffffffffffffffffffffffffffffffffffffff1681526020019081526020016000208190555061109a600154600b60008673ffffffffffffffffffffffffffffffffffffffff1673ffffffffffffffffffffffffffffffffffffffff16815260200190815260200160002054614d1c90919063ffffffff16565b600c60008573ffffffffffffffffffffffffffffffffffffffff1673ffffffffffffffffffffffffffffffffffffffff16815260200190815260200160002081905550611131600154600c60008673ffffffffffffffffffffffffffffffffffffffff1673ffffffffffffffffffffffffffffffffffffffff16815260200190815260200160002054614d1c90919063ffffffff16565b600d60008573ffffffffffffffffffffffffffffffffffffffff1673ffffffffffffffffffffffffffffffffffffffff168152602001908152602001600020819055506111c8600154600d60008673ffffffffffffffffffffffffffffffffffffffff1673ffffffffffffffffffffffffffffffffffffffff16815260200190815260200160002054614d1c90919063ffffffff16565b600e60008573ffffffffffffffffffffffffffffffffffffffff1673ffffffffffffffffffffffffffffffffffffffff1681526020019081526020016000208190555061125f600154600e60008673ffffffffffffffffffffffffffffffffffffffff1673ffffffffffffffffffffffffffffffffffffffff16815260200190815260200160002054614d1c90919063ffffffff16565b600f60008573ffffffffffffffffffffffffffffffffffffffff1673ffffffffffffffffffffffffffffffffffffffff168152602001908152602001600020819055506112f6600154600f60008673ffffffffffffffffffffffffffffffffffffffff1673ffffffffffffffffffffffffffffffffffffffff16815260200190815260200160002054614d1c90919063ffffffff16565b601060008573ffffffffffffffffffffffffffffffffffffffff1673ffffffffffffffffffffffffffffffffffffffff1681526020019081526020016000208190555061138d600154601060008673ffffffffffffffffffffffffffffffffffffffff1673ffffffffffffffffffffffffffffffffffffffff16815260200190815260200160002054614d1c90919063ffffffff16565b601160008573ffffffffffffffffffffffffffffffffffffffff1673ffffffffffffffffffffffffffffffffffffffff1681526020019081526020016000208190555060006113e6600c84614d3290919063ffffffff16565b905080601260008673ffffffffffffffffffffffffffffffffffffffff1673ffffffffffffffffffffffffffffffffffffffff1681526020019081526020016000208190555080601360008673ffffffffffffffffffffffffffffffffffffffff1673ffffffffffffffffffffffffffffffffffffffff1681526020019081526020016000208190555080601460008673ffffffffffffffffffffffffffffffffffffffff1673ffffffffffffffffffffffffffffffffffffffff1681526020019081526020016000208190555080601560008673ffffffffffffffffffffffffffffffffffffffff1673ffffffffffffffffffffffffffffffffffffffff1681526020019081526020016000208190555080601660008673ffffffffffffffffffffffffffffffffffffffff1673ffffffffffffffffffffffffffffffffffffffff1681526020019081526020016000208190555080601760008673ffffffffffffffffffffffffffffffffffffffff1673ffffffffffffffffffffffffffffffffffffffff1681526020019081526020016000208190555080601860008673ffffffffffffffffffffffffffffffffffffffff1673ffffffffffffffffffffffffffffffffffffffff1681526020019081526020016000208190555080601960008673ffffffffffffffffffffffffffffffffffffffff1673ffffffffffffffffffffffffffffffffffffffff1681526020019081526020016000208190555080601a60008673ffffffffffffffffffffffffffffffffffffffff1673ffffffffffffffffffffffffffffffffffffffff1681526020019081526020016000208190555080601b60008673ffffffffffffffffffffffffffffffffffffffff1673ffffffffffffffffffffffffffffffffffffffff1681526020019081526020016000208190555080601c60008673ffffffffffffffffffffffffffffffffffffffff1673ffffffffffffffffffffffffffffffffffffffff1681526020019081526020016000208190555080601d60008673ffffffffffffffffffffffffffffffffffffffff1673ffffffffffffffffffffffffffffffffffffffff1681526020019081526020016000208190555050505050565b600090565b61172b614d14565b73ffffffffffffffffffffffffffffffffffffffff166117496141a7565b73ffffffffffffffffffffffffffffffffffffffff161461179f576040517f08c379a000000000000000000000000000000000000000000000000000000000815260040161179690615042565b60405180910390fd5b600073ffffffffffffffffffffffffffffffffffffffff168273ffffffffffffffffffffffffffffffffffffffff1614156117d957600080fd5b60011515600260008473ffffffffffffffffffffffffffffffffffffffff1673ffffffffffffffffffffffffffffffffffffffff16815260200190815260200160002060009054906101000a900460ff161515141561186d576040517f08c379a0000000000000000000000000000000000000000000000000000000008152600401611864906151ac565b60405180910390fd5b60011515600360008473ffffffffffffffffffffffffffffffffffffffff1673ffffffffffffffffffffffffffffffffffffffff16815260200190815260200160002060009054906101000a900460ff1615151415611901576040517f08c379a00000000000000000000000000000000000000000000000000000000081526004016118f890615218565b60405180910390fd5b60011515600560008473ffffffffffffffffffffffffffffffffffffffff1673ffffffffffffffffffffffffffffffffffffffff16815260200190815260200160002060009054906101000a900460ff1615151415611995576040517f08c379a000000000000000000000000000000000000000000000000000000000815260040161198c906152aa565b60405180910390fd5b600081116119a257600080fd5b6001600260008473ffffffffffffffffffffffffffffffffffffffff1673ffffffffffffffffffffffffffffffffffffffff16815260200190815260200160002060006101000a81548160ff0219169083151502179055506000429050611a1460015482614d1c90919063ffffffff16565b600660008573ffffffffffffffffffffffffffffffffffffffff1673ffffffffffffffffffffffffffffffffffffffff16815260200190815260200160002081905550611aab600154600660008673ffffffffffffffffffffffffffffffffffffffff1673ffffffffffffffffffffffffffffffffffffffff16815260200190815260200160002054614d1c90919063ffffffff16565b600760008573ffffffffffffffffffffffffffffffffffffffff1673ffffffffffffffffffffffffffffffffffffffff16815260200190815260200160002081905550611b42600154600760008673ffffffffffffffffffffffffffffffffffffffff1673ffffffffffffffffffffffffffffffffffffffff16815260200190815260200160002054614d1c90919063ffffffff16565b600860008573ffffffffffffffffffffffffffffffffffffffff1673ffffffffffffffffffffffffffffffffffffffff16815260200190815260200160002081905550611bd9600154600860008673ffffffffffffffffffffffffffffffffffffffff1673ffffffffffffffffffffffffffffffffffffffff16815260200190815260200160002054614d1c90919063ffffffff16565b600960008573ffffffffffffffffffffffffffffffffffffffff1673ffffffffffffffffffffffffffffffffffffffff16815260200190815260200160002081905550611c70600154600960008673ffffffffffffffffffffffffffffffffffffffff1673ffffffffffffffffffffffffffffffffffffffff16815260200190815260200160002054614d1c90919063ffffffff16565b600a60008573ffffffffffffffffffffffffffffffffffffffff1673ffffffffffffffffffffffffffffffffffffffff16815260200190815260200160002081905550611d07600154600a60008673ffffffffffffffffffffffffffffffffffffffff1673ffffffffffffffffffffffffffffffffffffffff16815260200190815260200160002054614d1c90919063ffffffff16565b600b60008573ffffffffffffffffffffffffffffffffffffffff1673ffffffffffffffffffffffffffffffffffffffff16815260200190815260200160002081905550611d9e600154600b60008673ffffffffffffffffffffffffffffffffffffffff1673ffffffffffffffffffffffffffffffffffffffff16815260200190815260200160002054614d1c90919063ffffffff16565b600c60008573ffffffffffffffffffffffffffffffffffffffff1673ffffffffffffffffffffffffffffffffffffffff16815260200190815260200160002081905550611e35600154600c60008673ffffffffffffffffffffffffffffffffffffffff1673ffffffffffffffffffffffffffffffffffffffff16815260200190815260200160002054614d1c90919063ffffffff16565b600d60008573ffffffffffffffffffffffffffffffffffffffff1673ffffffffffffffffffffffffffffffffffffffff16815260200190815260200160002081905550611ecc600154600d60008673ffffffffffffffffffffffffffffffffffffffff1673ffffffffffffffffffffffffffffffffffffffff16815260200190815260200160002054614d1c90919063ffffffff16565b600e60008573ffffffffffffffffffffffffffffffffffffffff1673ffffffffffffffffffffffffffffffffffffffff16815260200190815260200160002081905550611f63600154600e60008673ffffffffffffffffffffffffffffffffffffffff1673ffffffffffffffffffffffffffffffffffffffff16815260200190815260200160002054614d1c90919063ffffffff16565b600f60008573ffffffffffffffffffffffffffffffffffffffff1673ffffffffffffffffffffffffffffffffffffffff16815260200190815260200160002081905550611ffa600154600f60008673ffffffffffffffffffffffffffffffffffffffff1673ffffffffffffffffffffffffffffffffffffffff16815260200190815260200160002054614d1c90919063ffffffff16565b601060008573ffffffffffffffffffffffffffffffffffffffff1673ffffffffffffffffffffffffffffffffffffffff16815260200190815260200160002081905550612091600154601060008673ffffffffffffffffffffffffffffffffffffffff1673ffffffffffffffffffffffffffffffffffffffff16815260200190815260200160002054614d1c90919063ffffffff16565b601160008573ffffffffffffffffffffffffffffffffffffffff1673ffffffffffffffffffffffffffffffffffffffff1681526020019081526020016000208190555060006120ea600c84614d3290919063ffffffff16565b905080601260008673ffffffffffffffffffffffffffffffffffffffff1673ffffffffffffffffffffffffffffffffffffffff1681526020019081526020016000208190555080601360008673ffffffffffffffffffffffffffffffffffffffff1673ffffffffffffffffffffffffffffffffffffffff1681526020019081526020016000208190555080601460008673ffffffffffffffffffffffffffffffffffffffff1673ffffffffffffffffffffffffffffffffffffffff1681526020019081526020016000208190555080601560008673ffffffffffffffffffffffffffffffffffffffff1673ffffffffffffffffffffffffffffffffffffffff1681526020019081526020016000208190555080601660008673ffffffffffffffffffffffffffffffffffffffff1673ffffffffffffffffffffffffffffffffffffffff1681526020019081526020016000208190555080601760008673ffffffffffffffffffffffffffffffffffffffff1673ffffffffffffffffffffffffffffffffffffffff1681526020019081526020016000208190555080601860008673ffffffffffffffffffffffffffffffffffffffff1673ffffffffffffffffffffffffffffffffffffffff1681526020019081526020016000208190555080601960008673ffffffffffffffffffffffffffffffffffffffff1673ffffffffffffffffffffffffffffffffffffffff1681526020019081526020016000208190555080601a60008673ffffffffffffffffffffffffffffffffffffffff1673ffffffffffffffffffffffffffffffffffffffff1681526020019081526020016000208190555080601b60008673ffffffffffffffffffffffffffffffffffffffff1673ffffffffffffffffffffffffffffffffffffffff1681526020019081526020016000208190555080601c60008673ffffffffffffffffffffffffffffffffffffffff1673ffffffffffffffffffffffffffffffffffffffff1681526020019081526020016000208190555080601d60008673ffffffffffffffffffffffffffffffffffffffff1673ffffffffffffffffffffffffffffffffffffffff1681526020019081526020016000208190555050505050565b60009392505050565b600a6020528060005260406000206000915090505481565b60066020528060005260406000206000915090505481565b60116020528060005260406000206000915090505481565b6000804290508091505090565b60006001151560026000612492614d14565b73ffffffffffffffffffffffffffffffffffffffff1673ffffffffffffffffffffffffffffffffffffffff16815260200190815260200160002060009054906101000a900460ff1615151461251c576040517f08c379a00000000000000000000000000000000000000000000000000000000081526004016125139061533c565b60405180910390fd5b600115156003600061252c614d14565b73ffffffffffffffffffffffffffffffffffffffff1673ffffffffffffffffffffffffffffffffffffffff16815260200190815260200160002060009054906101000a900460ff16151514156125b7576040517f08c379a00000000000000000000000000000000000000000000000000000000081526004016125ae906153a8565b60405180910390fd5b601160006125c3614d14565b73ffffffffffffffffffffffffffffffffffffffff1673ffffffffffffffffffffffffffffffffffffffff168152602001908152602001600020544211801561265257506000601d6000612615614d14565b73ffffffffffffffffffffffffffffffffffffffff1673ffffffffffffffffffffffffffffffffffffffff16815260200190815260200160002054115b156127d857601e60009054906101000a900473ffffffffffffffffffffffffffffffffffffffff1673ffffffffffffffffffffffffffffffffffffffff1663a9059cbb61269d614d14565b601d60006126a9614d14565b73ffffffffffffffffffffffffffffffffffffffff1673ffffffffffffffffffffffffffffffffffffffff168152602001908152602001600020546040518363ffffffff1660e01b81526004016127019291906153c8565b6020604051808303816000875af1158015612720573d6000803e3d6000fd5b505050506040513d601f19601f82011682018060405250810190612744919061541d565b612783576040517f08c379a000000000000000000000000000000000000000000000000000000000815260040161277a90615496565b60405180910390fd5b6000601d6000612791614d14565b73ffffffffffffffffffffffffffffffffffffffff1673ffffffffffffffffffffffffffffffffffffffff1681526020019081526020016000208190555060019050613f8b565b601060006127e4614d14565b73ffffffffffffffffffffffffffffffffffffffff1673ffffffffffffffffffffffffffffffffffffffff168152602001908152602001600020544211801561287357506000601c6000612836614d14565b73ffffffffffffffffffffffffffffffffffffffff1673ffffffffffffffffffffffffffffffffffffffff16815260200190815260200160002054115b156129f957601e60009054906101000a900473ffffffffffffffffffffffffffffffffffffffff1673ffffffffffffffffffffffffffffffffffffffff1663a9059cbb6128be614d14565b601c60006128ca614d14565b73ffffffffffffffffffffffffffffffffffffffff1673ffffffffffffffffffffffffffffffffffffffff168152602001908152602001600020546040518363ffffffff1660e01b81526004016129229291906153c8565b6020604051808303816000875af1158015612941573d6000803e3d6000fd5b505050506040513d601f19601f82011682018060405250810190612965919061541d565b6129a4576040517f08c379a000000000000000000000000000000000000000000000000000000000815260040161299b90615496565b60405180910390fd5b6000601c60006129b2614d14565b73ffffffffffffffffffffffffffffffffffffffff1673ffffffffffffffffffffffffffffffffffffffff1681526020019081526020016000208190555060019050613f8b565b600f6000612a05614d14565b73ffffffffffffffffffffffffffffffffffffffff1673ffffffffffffffffffffffffffffffffffffffff1681526020019081526020016000205442118015612a9457506000601b6000612a57614d14565b73ffffffffffffffffffffffffffffffffffffffff1673ffffffffffffffffffffffffffffffffffffffff16815260200190815260200160002054115b15612c1a57601e60009054906101000a900473ffffffffffffffffffffffffffffffffffffffff1673ffffffffffffffffffffffffffffffffffffffff1663a9059cbb612adf614d14565b601b6000612aeb614d14565b73ffffffffffffffffffffffffffffffffffffffff1673ffffffffffffffffffffffffffffffffffffffff168152602001908152602001600020546040518363ffffffff1660e01b8152600401612b439291906153c8565b6020604051808303816000875af1158015612b62573d6000803e3d6000fd5b505050506040513d601f19601f82011682018060405250810190612b86919061541d565b612bc5576040517f08c379a0000000000000000000000000000000000000000000000000000000008152600401612bbc90615496565b60405180910390fd5b6000601b6000612bd3614d14565b73ffffffffffffffffffffffffffffffffffffffff1673ffffffffffffffffffffffffffffffffffffffff1681526020019081526020016000208190555060019050613f8b565b600e6000612c26614d14565b73ffffffffffffffffffffffffffffffffffffffff1673ffffffffffffffffffffffffffffffffffffffff1681526020019081526020016000205442118015612cb557506000601a6000612c78614d14565b73ffffffffffffffffffffffffffffffffffffffff1673ffffffffffffffffffffffffffffffffffffffff16815260200190815260200160002054115b15612e3b57601e60009054906101000a900473ffffffffffffffffffffffffffffffffffffffff1673ffffffffffffffffffffffffffffffffffffffff1663a9059cbb612d00614d14565b601a6000612d0c614d14565b73ffffffffffffffffffffffffffffffffffffffff1673ffffffffffffffffffffffffffffffffffffffff168152602001908152602001600020546040518363ffffffff1660e01b8152600401612d649291906153c8565b6020604051808303816000875af1158015612d83573d6000803e3d6000fd5b505050506040513d601f19601f82011682018060405250810190612da7919061541d565b612de6576040517f08c379a0000000000000000000000000000000000000000000000000000000008152600401612ddd90615496565b60405180910390fd5b6000601a6000612df4614d14565b73ffffffffffffffffffffffffffffffffffffffff1673ffffffffffffffffffffffffffffffffffffffff1681526020019081526020016000208190555060019050613f8b565b600d6000612e47614d14565b73ffffffffffffffffffffffffffffffffffffffff1673ffffffffffffffffffffffffffffffffffffffff1681526020019081526020016000205442118015612ed65750600060196000612e99614d14565b73ffffffffffffffffffffffffffffffffffffffff1673ffffffffffffffffffffffffffffffffffffffff16815260200190815260200160002054115b1561305c57601e60009054906101000a900473ffffffffffffffffffffffffffffffffffffffff1673ffffffffffffffffffffffffffffffffffffffff1663a9059cbb612f21614d14565b60196000612f2d614d14565b73ffffffffffffffffffffffffffffffffffffffff1673ffffffffffffffffffffffffffffffffffffffff168152602001908152602001600020546040518363ffffffff1660e01b8152600401612f859291906153c8565b6020604051808303816000875af1158015612fa4573d6000803e3d6000fd5b505050506040513d601f19601f82011682018060405250810190612fc8919061541d565b613007576040517f08c379a0000000000000000000000000000000000000000000000000000000008152600401612ffe90615496565b60405180910390fd5b600060196000613015614d14565b73ffffffffffffffffffffffffffffffffffffffff1673ffffffffffffffffffffffffffffffffffffffff1681526020019081526020016000208190555060019050613f8b565b600c6000613068614d14565b73ffffffffffffffffffffffffffffffffffffffff1673ffffffffffffffffffffffffffffffffffffffff16815260200190815260200160002054421180156130f757506000601860006130ba614d14565b73ffffffffffffffffffffffffffffffffffffffff1673ffffffffffffffffffffffffffffffffffffffff16815260200190815260200160002054115b1561327d57601e60009054906101000a900473ffffffffffffffffffffffffffffffffffffffff1673ffffffffffffffffffffffffffffffffffffffff1663a9059cbb613142614d14565b6018600061314e614d14565b73ffffffffffffffffffffffffffffffffffffffff1673ffffffffffffffffffffffffffffffffffffffff168152602001908152602001600020546040518363ffffffff1660e01b81526004016131a69291906153c8565b6020604051808303816000875af11580156131c5573d6000803e3d6000fd5b505050506040513d601f19601f820116820180604052508101906131e9919061541d565b613228576040517f08c379a000000000000000000000000000000000000000000000000000000000815260040161321f90615496565b60405180910390fd5b600060186000613236614d14565b73ffffffffffffffffffffffffffffffffffffffff1673ffffffffffffffffffffffffffffffffffffffff1681526020019081526020016000208190555060019050613f8b565b600b6000613289614d14565b73ffffffffffffffffffffffffffffffffffffffff1673ffffffffffffffffffffffffffffffffffffffff168152602001908152602001600020544211801561331857506000601760006132db614d14565b73ffffffffffffffffffffffffffffffffffffffff1673ffffffffffffffffffffffffffffffffffffffff16815260200190815260200160002054115b1561349e57601e60009054906101000a900473ffffffffffffffffffffffffffffffffffffffff1673ffffffffffffffffffffffffffffffffffffffff1663a9059cbb613363614d14565b6017600061336f614d14565b73ffffffffffffffffffffffffffffffffffffffff1673ffffffffffffffffffffffffffffffffffffffff168152602001908152602001600020546040518363ffffffff1660e01b81526004016133c79291906153c8565b6020604051808303816000875af11580156133e6573d6000803e3d6000fd5b505050506040513d601f19601f8201168201806040525081019061340a919061541d565b613449576040517f08c379a000000000000000000000000000000000000000000000000000000000815260040161344090615496565b60405180910390fd5b600060176000613457614d14565b73ffffffffffffffffffffffffffffffffffffffff1673ffffffffffffffffffffffffffffffffffffffff1681526020019081526020016000208190555060019050613f8b565b600a60006134aa614d14565b73ffffffffffffffffffffffffffffffffffffffff1673ffffffffffffffffffffffffffffffffffffffff168152602001908152602001600020544211801561353957506000601660006134fc614d14565b73ffffffffffffffffffffffffffffffffffffffff1673ffffffffffffffffffffffffffffffffffffffff16815260200190815260200160002054115b156136bf57601e60009054906101000a900473ffffffffffffffffffffffffffffffffffffffff1673ffffffffffffffffffffffffffffffffffffffff1663a9059cbb613584614d14565b60166000613590614d14565b73ffffffffffffffffffffffffffffffffffffffff1673ffffffffffffffffffffffffffffffffffffffff168152602001908152602001600020546040518363ffffffff1660e01b81526004016135e89291906153c8565b6020604051808303816000875af1158015613607573d6000803e3d6000fd5b505050506040513d601f19601f8201168201806040525081019061362b919061541d565b61366a576040517f08c379a000000000000000000000000000000000000000000000000000000000815260040161366190615496565b60405180910390fd5b600060166000613678614d14565b73ffffffffffffffffffffffffffffffffffffffff1673ffffffffffffffffffffffffffffffffffffffff1681526020019081526020016000208190555060019050613f8b565b600960006136cb614d14565b73ffffffffffffffffffffffffffffffffffffffff1673ffffffffffffffffffffffffffffffffffffffff168152602001908152602001600020544211801561375a575060006015600061371d614d14565b73ffffffffffffffffffffffffffffffffffffffff1673ffffffffffffffffffffffffffffffffffffffff16815260200190815260200160002054115b156138e057601e60009054906101000a900473ffffffffffffffffffffffffffffffffffffffff1673ffffffffffffffffffffffffffffffffffffffff1663a9059cbb6137a5614d14565b601560006137b1614d14565b73ffffffffffffffffffffffffffffffffffffffff1673ffffffffffffffffffffffffffffffffffffffff168152602001908152602001600020546040518363ffffffff1660e01b81526004016138099291906153c8565b6020604051808303816000875af1158015613828573d6000803e3d6000fd5b505050506040513d601f19601f8201168201806040525081019061384c919061541d565b61388b576040517f08c379a000000000000000000000000000000000000000000000000000000000815260040161388290615496565b60405180910390fd5b600060156000613899614d14565b73ffffffffffffffffffffffffffffffffffffffff1673ffffffffffffffffffffffffffffffffffffffff1681526020019081526020016000208190555060019050613f8b565b600860006138ec614d14565b73ffffffffffffffffffffffffffffffffffffffff1673ffffffffffffffffffffffffffffffffffffffff168152602001908152602001600020544211801561397b575060006014600061393e614d14565b73ffffffffffffffffffffffffffffffffffffffff1673ffffffffffffffffffffffffffffffffffffffff16815260200190815260200160002054115b15613b0157601e60009054906101000a900473ffffffffffffffffffffffffffffffffffffffff1673ffffffffffffffffffffffffffffffffffffffff1663a9059cbb6139c6614d14565b601460006139d2614d14565b73ffffffffffffffffffffffffffffffffffffffff1673ffffffffffffffffffffffffffffffffffffffff168152602001908152602001600020546040518363ffffffff1660e01b8152600401613a2a9291906153c8565b6020604051808303816000875af1158015613a49573d6000803e3d6000fd5b505050506040513d601f19601f82011682018060405250810190613a6d919061541d565b613aac576040517f08c379a0000000000000000000000000000000000000000000000000000000008152600401613aa390615496565b60405180910390fd5b600060146000613aba614d14565b73ffffffffffffffffffffffffffffffffffffffff1673ffffffffffffffffffffffffffffffffffffffff1681526020019081526020016000208190555060019050613f8b565b60076000613b0d614d14565b73ffffffffffffffffffffffffffffffffffffffff1673ffffffffffffffffffffffffffffffffffffffff1681526020019081526020016000205442118015613b9c5750600060136000613b5f614d14565b73ffffffffffffffffffffffffffffffffffffffff1673ffffffffffffffffffffffffffffffffffffffff16815260200190815260200160002054115b15613d2257601e60009054906101000a900473ffffffffffffffffffffffffffffffffffffffff1673ffffffffffffffffffffffffffffffffffffffff1663a9059cbb613be7614d14565b60136000613bf3614d14565b73ffffffffffffffffffffffffffffffffffffffff1673ffffffffffffffffffffffffffffffffffffffff168152602001908152602001600020546040518363ffffffff1660e01b8152600401613c4b9291906153c8565b6020604051808303816000875af1158015613c6a573d6000803e3d6000fd5b505050506040513d601f19601f82011682018060405250810190613c8e919061541d565b613ccd576040517f08c379a0000000000000000000000000000000000000000000000000000000008152600401613cc490615496565b60405180910390fd5b600060136000613cdb614d14565b73ffffffffffffffffffffffffffffffffffffffff1673ffffffffffffffffffffffffffffffffffffffff1681526020019081526020016000208190555060019050613f8b565b60066000613d2e614d14565b73ffffffffffffffffffffffffffffffffffffffff1673ffffffffffffffffffffffffffffffffffffffff1681526020019081526020016000205442118015613dbd5750600060126000613d80614d14565b73ffffffffffffffffffffffffffffffffffffffff1673ffffffffffffffffffffffffffffffffffffffff16815260200190815260200160002054115b15613f4357601e60009054906101000a900473ffffffffffffffffffffffffffffffffffffffff1673ffffffffffffffffffffffffffffffffffffffff1663a9059cbb613e08614d14565b60126000613e14614d14565b73ffffffffffffffffffffffffffffffffffffffff1673ffffffffffffffffffffffffffffffffffffffff168152602001908152602001600020546040518363ffffffff1660e01b8152600401613e6c9291906153c8565b6020604051808303816000875af1158015613e8b573d6000803e3d6000fd5b505050506040513d601f19601f82011682018060405250810190613eaf919061541d565b613eee576040517f08c379a0000000000000000000000000000000000000000000000000000000008152600401613ee590615496565b60405180910390fd5b600060126000613efc614d14565b73ffffffffffffffffffffffffffffffffffffffff1673ffffffffffffffffffffffffffffffffffffffff1681526020019081526020016000208190555060019050613f8b565b60014210613f86576040517f08c379a0000000000000000000000000000000000000000000000000000000008152600401613f7d90615528565b60405180910390fd5b600090505b90565b601a6020528060005260406000206000915090505481565b601c6020528060005260406000206000915090505481565b600b6020528060005260406000206000915090505481565b600d6020528060005260406000206000915090505481565b600e6020528060005260406000206000915090505481565b60186020528060005260406000206000915090505481565b6000919050565b61402d614d14565b73ffffffffffffffffffffffffffffffffffffffff1661404b6141a7565b73ffffffffffffffffffffffffffffffffffffffff16146140a1576040517f08c379a000000000000000000000000000000000000000000000000000000000815260040161409890615042565b60405180910390fd5b600073ffffffffffffffffffffffffffffffffffffffff1660008054906101000a900473ffffffffffffffffffffffffffffffffffffffff1673ffffffffffffffffffffffffffffffffffffffff167f8be0079c531659141344cd1fd0a4f28419497f9722a3daafe3b4186f6b6457e060405160405180910390a360008060006101000a81548173ffffffffffffffffffffffffffffffffffffffff021916908373ffffffffffffffffffffffffffffffffffffffff160217905550565b60126020528060005260406000206000915090505481565b600c6020528060005260406000206000915090505481565b60176020528060005260406000206000915090505481565b60008060009054906101000a900473ffffffffffffffffffffffffffffffffffffffff16905090565b6141d8614d14565b73ffffffffffffffffffffffffffffffffffffffff166141f66141a7565b73ffffffffffffffffffffffffffffffffffffffff161461424c576040517f08c379a000000000000000000000000000000000000000000000000000000000815260040161424390615042565b60405180910390fd5b600073ffffffffffffffffffffffffffffffffffffffff168173ffffffffffffffffffffffffffffffffffffffff16141561428657600080fd5b60011515600460008373ffffffffffffffffffffffffffffffffffffffff1673ffffffffffffffffffffffffffffffffffffffff16815260200190815260200160002060009054906101000a900460ff161515141561431a576040517f08c379a000000000000000000000000000000000000000000000000000000000815260040161431190615594565b60405180910390fd5b60011515600260008373ffffffffffffffffffffffffffffffffffffffff1673ffffffffffffffffffffffffffffffffffffffff16815260200190815260200160002060009054906101000a900460ff161515146143ad576040517f08c379a00000000000000000000000000000000000000000000000000000000081526004016143a490615626565b60405180910390fd5b60011515600360008373ffffffffffffffffffffffffffffffffffffffff1673ffffffffffffffffffffffffffffffffffffffff16815260200190815260200160002060009054906101000a900460ff1615151415614441576040517f08c379a0000000000000000000000000000000000000000000000000000000008152600401614438906156b8565b60405180910390fd5b6000600260008373ffffffffffffffffffffffffffffffffffffffff1673ffffffffffffffffffffffffffffffffffffffff16815260200190815260200160002060006101000a81548160ff0219169083151502179055506001600360008373ffffffffffffffffffffffffffffffffffffffff1673ffffffffffffffffffffffffffffffffffffffff16815260200190815260200160002060006101000a81548160ff0219169083151502179055506000601260008373ffffffffffffffffffffffffffffffffffffffff1673ffffffffffffffffffffffffffffffffffffffff168152602001908152602001600020819055506000601360008373ffffffffffffffffffffffffffffffffffffffff1673ffffffffffffffffffffffffffffffffffffffff168152602001908152602001600020819055506000601460008373ffffffffffffffffffffffffffffffffffffffff1673ffffffffffffffffffffffffffffffffffffffff168152602001908152602001600020819055506000601560008373ffffffffffffffffffffffffffffffffffffffff1673ffffffffffffffffffffffffffffffffffffffff168152602001908152602001600020819055506000601660008373ffffffffffffffffffffffffffffffffffffffff1673ffffffffffffffffffffffffffffffffffffffff168152602001908152602001600020819055506000601760008373ffffffffffffffffffffffffffffffffffffffff1673ffffffffffffffffffffffffffffffffffffffff168152602001908152602001600020819055506000601860008373ffffffffffffffffffffffffffffffffffffffff1673ffffffffffffffffffffffffffffffffffffffff168152602001908152602001600020819055506000601960008373ffffffffffffffffffffffffffffffffffffffff1673ffffffffffffffffffffffffffffffffffffffff168152602001908152602001600020819055506000601a60008373ffffffffffffffffffffffffffffffffffffffff1673ffffffffffffffffffffffffffffffffffffffff168152602001908152602001600020819055506000601b60008373ffffffffffffffffffffffffffffffffffffffff1673ffffffffffffffffffffffffffffffffffffffff168152602001908152602001600020819055506000601c60008373ffffffffffffffffffffffffffffffffffffffff1673ffffffffffffffffffffffffffffffffffffffff168152602001908152602001600020819055506000601d60008373ffffffffffffffffffffffffffffffffffffffff1673ffffffffffffffffffffffffffffffffffffffff1681526020019081526020016000208190555050565b60015481565b60046020528060005260406000206000915054906101000a900460ff1681565b60146020528060005260406000206000915090505481565b601e60009054906101000a900473ffffffffffffffffffffffffffffffffffffffff1681565b600092915050565b600f6020528060005260406000206000915090505481565b60156020528060005260406000206000915090505481565b60106020528060005260406000206000915090505481565b600092915050565b601d6020528060005260406000206000915090505481565b61490c614d14565b73ffffffffffffffffffffffffffffffffffffffff1661492a6141a7565b73ffffffffffffffffffffffffffffffffffffffff1614614980576040517f08c379a000000000000000000000000000000000000000000000000000000000815260040161497790615042565b60405180910390fd5b6000601e60009054906101000a900473ffffffffffffffffffffffffffffffffffffffff1673ffffffffffffffffffffffffffffffffffffffff166370a08231306040518263ffffffff1660e01b81526004016149dd9190614f10565b602060405180830381865afa1580156149fa573d6000803e3d6000fd5b505050506040513d601f19601f82011682018060405250810190614a1e91906156ed565b9050601e60009054906101000a900473ffffffffffffffffffffffffffffffffffffffff1673ffffffffffffffffffffffffffffffffffffffff1663a9059cbb614a66614d14565b836040518363ffffffff1660e01b8152600401614a849291906153c8565b6020604051808303816000875af1158015614aa3573d6000803e3d6000fd5b505050506040513d601f19601f82011682018060405250810190614ac7919061541d565b5050565b60056020528060005260406000206000915054906101000a900460ff1681565b60166020528060005260406000206000915090505481565b60096020528060005260406000206000915090505481565b601b6020528060005260406000206000915090505481565b614b3b614d14565b73ffffffffffffffffffffffffffffffffffffffff16614b596141a7565b73ffffffffffffffffffffffffffffffffffffffff1614614baf576040517f08c379a0000000000000000000000000000000000000000000000000000000008152600401614ba690615042565b60405180910390fd5b600073ffffffffffffffffffffffffffffffffffffffff168173ffffffffffffffffffffffffffffffffffffffff161415614c1f576040517f08c379a0000000000000000000000000000000000000000000000000000000008152600401614c169061578c565b60405180910390fd5b8073ffffffffffffffffffffffffffffffffffffffff1660008054906101000a900473ffffffffffffffffffffffffffffffffffffffff1673ffffffffffffffffffffffffffffffffffffffff167f8be0079c531659141344cd1fd0a4f28419497f9722a3daafe3b4186f6b6457e060405160405180910390a3806000806101000a81548173ffffffffffffffffffffffffffffffffffffffff021916908373ffffffffffffffffffffffffffffffffffffffff16021790555050565b60076020528060005260406000206000915090505481565b60036020528060005260406000206000915054906101000a900460ff1681565b600033905090565b60008183614d2a91906157db565b905092915050565b60008183614d409190615860565b905092915050565b600080fd5b600073ffffffffffffffffffffffffffffffffffffffff82169050919050565b6000614d7882614d4d565b9050919050565b614d8881614d6d565b8114614d9357600080fd5b50565b600081359050614da581614d7f565b92915050565b600060208284031215614dc157614dc0614d48565b5b6000614dcf84828501614d96565b91505092915050565b6000819050919050565b614deb81614dd8565b82525050565b6000602082019050614e066000830184614de2565b92915050565b614e1581614dd8565b8114614e2057600080fd5b50565b600081359050614e3281614e0c565b92915050565b60008060408385031215614e4f57614e4e614d48565b5b6000614e5d85828601614d96565b9250506020614e6e85828601614e23565b9150509250929050565b60008115159050919050565b614e8d81614e78565b82525050565b6000602082019050614ea86000830184614e84565b92915050565b600080600060608486031215614ec757614ec6614d48565b5b6000614ed586828701614d96565b9350506020614ee686828701614d96565b9250506040614ef786828701614e23565b9150509250925092565b614f0a81614d6d565b82525050565b6000602082019050614f256000830184614f01565b92915050565b6000819050919050565b6000614f50614f4b614f4684614d4d565b614f2b565b614d4d565b9050919050565b6000614f6282614f35565b9050919050565b6000614f7482614f57565b9050919050565b614f8481614f69565b82525050565b6000602082019050614f9f6000830184614f7b565b92915050565b60008060408385031215614fbc57614fbb614d48565b5b6000614fca85828601614d96565b9250506020614fdb85828601614d96565b9150509250929050565b600082825260208201905092915050565b7f4f776e61626c653a2063616c6c6572206973206e6f7420746865206f776e6572600082015250565b600061502c602083614fe5565b915061503782614ff6565b602082019050919050565b6000602082019050818103600083015261505b8161501f565b9050919050565b7f506172746e657220616c72656164792061646465642e00000000000000000000600082015250565b6000615098601683614fe5565b91506150a382615062565b602082019050919050565b600060208201905081810360008301526150c78161508b565b9050919050565b7f506172746e65722068617320616c726561647920636f6d706c6574656420746860008201527f652066756c6c207363686564756c650000000000000000000000000000000000602082015250565b600061512a602f83614fe5565b9150615135826150ce565b604082019050919050565b600060208201905081810360008301526151598161511d565b9050919050565b7f456d706c6f79656520616c726561647920657869737473000000000000000000600082015250565b6000615196601783614fe5565b91506151a182615160565b602082019050919050565b600060208201905081810360008301526151c581615189565b9050919050565b7f5265766f6b656420656d706c6f7965652063616e6e6f74206265206164646564600082015250565b6000615202602083614fe5565b915061520d826151cc565b602082019050919050565b60006020820190508181036000830152615231816151f5565b9050919050565b7f436f6d706c6574656c792076657374656420656d706c6f7965652063616e6e6f60008201527f7420626520616464656400000000000000000000000000000000000000000000602082015250565b6000615294602a83614fe5565b915061529f82615238565b604082019050919050565b600060208201905081810360008301526152c381615287565b9050919050565b7f596f75206d75737420626520616e2061637469766520656d706c6f7965652f7060008201527f6172746e657220746f2077697468647261770000000000000000000000000000602082015250565b6000615326603283614fe5565b9150615331826152ca565b604082019050919050565b6000602082019050818103600083015261535581615319565b9050919050565b7f596f7572206d656d6265727368697020686173206265656e207265766f6b6564600082015250565b6000615392602083614fe5565b915061539d8261535c565b602082019050919050565b600060208201905081810360008301526153c181615385565b9050919050565b60006040820190506153dd6000830185614f01565b6153ea6020830184614de2565b9392505050565b6153fa81614e78565b811461540557600080fd5b50565b600081519050615417816153f1565b92915050565b60006020828403121561543357615432614d48565b5b600061544184828501615408565b91505092915050565b7f5472616e73666572206661696c65642e00000000000000000000000000000000600082015250565b6000615480601083614fe5565b915061548b8261544a565b602082019050919050565b600060208201905081810360008301526154af81615473565b9050919050565b7f546865206e657874207363686564756c65206973206e6f74206475652079657460008201527f2e00000000000000000000000000000000000000000000000000000000000000602082015250565b6000615512602183614fe5565b915061551d826154b6565b604082019050919050565b6000602082019050818103600083015261554181615505565b9050919050565b7f506172746e6572732063616e6e6f74206265207265766f6b6564000000000000600082015250565b600061557e601a83614fe5565b915061558982615548565b602082019050919050565b600060208201905081810360008301526155ad81615571565b9050919050565b7f4f6e6c792061637469766520656d706c6f7965652063616e206265207265766f60008201527f6b65640000000000000000000000000000000000000000000000000000000000602082015250565b6000615610602383614fe5565b915061561b826155b4565b604082019050919050565b6000602082019050818103600083015261563f81615603565b9050919050565b7f456d706c6f7965652068617320616c7265616479206265656e207265766f6b6560008201527f6400000000000000000000000000000000000000000000000000000000000000602082015250565b60006156a2602183614fe5565b91506156ad82615646565b604082019050919050565b600060208201905081810360008301526156d181615695565b9050919050565b6000815190506156e781614e0c565b92915050565b60006020828403121561570357615702614d48565b5b6000615711848285016156d8565b91505092915050565b7f4f776e61626c653a206e6577206f776e657220697320746865207a65726f206160008201527f6464726573730000000000000000000000000000000000000000000000000000602082015250565b6000615776602683614fe5565b91506157818261571a565b604082019050919050565b600060208201905081810360008301526157a581615769565b9050919050565b7f4e487b7100000000000000000000000000000000000000000000000000000000600052601160045260246000fd5b60006157e682614dd8565b91506157f183614dd8565b9250827fffffffffffffffffffffffffffffffffffffffffffffffffffffffffffffffff03821115615826576158256157ac565b5b828201905092915050565b7f4e487b7100000000000000000000000000000000000000000000000000000000600052601260045260246000fd5b600061586b82614dd8565b915061587683614dd8565b92508261588657615885615831565b5b82820490509291505056fea26469706673582212209ddf0e18b8437c055048709be947d29cb33e8c198e4350f0bfc97a06fa1af6c864736f6c634300080a0033",
  "immutableReferences": {},
  "source": "// SPDX-License-Identifier: MIT\npragma solidity ^0.8.0;\n\nimport \"./IERC20.sol\";\nimport \"./Ownable.sol\";\nimport \"./SafeMath.sol\";\n\ncontract KyoVesting is IERC20, Ownable {\n\tusing SafeMath for uint256;\n\n\tuint256 public interval;\n\n\tmapping (address => bool) public employee;\n\tmapping (address => bool) public revoked;\n\tmapping (address => bool) public partners;\n\tmapping (address => bool) public completed;\n\n\t//time\n\tmapping (address => uint256) public first_schedule;\n\tmapping (address => uint256) public second_schedule;\n\tmapping (address => uint256) public third_schedule;\n\tmapping (address => uint256) public fourth_schedule;\n\tmapping (address => uint256) public fifth_schedule;\n\tmapping (address => uint256) public sixth_schedule;\n\tmapping (address => uint256) public seventh_schedule;\n\tmapping (address => uint256) public eighth_schedule;\n\tmapping (address => uint256) public ninth_schedule;\n\tmapping (address => uint256) public tenth_schedule;\n\tmapping (address => uint256) public eleventh_schedule;\n\tmapping (address => uint256) public twelfth_schedule;\n\n\t//amount\n\tmapping (address => uint256) public first_payment;\n\tmapping (address => uint256) public second_payment;\n\tmapping (address => uint256) public third_payment;\n\tmapping (address => uint256) public fourth_payment;\n\tmapping (address => uint256) public fifth_payment;\n\tmapping (address => uint256) public sixth_payment;\n\tmapping (address => uint256) public seventh_payment;\n\tmapping (address => uint256) public eighth_payment;\n\tmapping (address => uint256) public ninth_payment;\n\tmapping (address => uint256) public tenth_payment;\n\tmapping (address => uint256) public eleventh_payment;\n\tmapping (address => uint256) public twelfth_payment;\n\n\tIERC20 public kyo;\n\n\tconstructor(address _kyo, uint256 _interval) {\n\t\tkyo = IERC20(_kyo);\n\t\tinterval = _interval;\n\t}\n\n\tfunction add_partner(address _partner, uint256 _amount) public onlyOwner {\n\t\trequire(_partner != address(0));\n\t\trequire(partners[_partner] != true, \"Partner already added.\");\n\t\trequire(_amount > 0);\n\t\trequire(completed[_partner] != true, \"Partner has already completed the full schedule\");\n\t\temployee[_partner] = true;\n\t\tpartners[_partner] = true;\n\t\tuint256 timenow = block.timestamp;\n\n\t\t// add timelocks to schedules\n\t\tfirst_schedule[_partner] = timenow.add(interval);\n\t\tsecond_schedule[_partner] = first_schedule[_partner].add(interval);\n\t\tthird_schedule[_partner] = second_schedule[_partner].add(interval);\n\t\tfourth_schedule[_partner] = third_schedule[_partner].add(interval);\n\t\tfifth_schedule[_partner] = fourth_schedule[_partner].add(interval);\n\t\tsixth_schedule[_partner] = fifth_schedule[_partner].add(interval);\n\t\tseventh_schedule[_partner] = sixth_schedule[_partner].add(interval);\n\t\teighth_schedule[_partner] = seventh_schedule[_partner].add(interval);\n\t\tninth_schedule[_partner] = eighth_schedule[_partner].add(interval);\n\t\ttenth_schedule[_partner] = ninth_schedule[_partner].add(interval);\n\t\televenth_schedule[_partner] = tenth_schedule[_partner].add(interval);\n\t\ttwelfth_schedule[_partner] = eleventh_schedule[_partner].add(interval);\n\n\t\t//split amount into the schedules\n\t\tuint256 payment = _amount.div(12);\n\t\tfirst_payment[_partner] = payment;\n\t\tsecond_payment[_partner] = payment;\n\t\tthird_payment[_partner] = payment;\n\t\tfourth_payment[_partner] = payment;\n\t\tfifth_payment[_partner] = payment;\n\t\tsixth_payment[_partner] = payment;\n\t\tseventh_payment[_partner] = payment;\n\t\teighth_payment[_partner] = payment;\n\t\tninth_payment[_partner] = payment;\n\t\ttenth_payment[_partner] = payment;\n\t\televenth_payment[_partner] = payment;\n\t\ttwelfth_payment[_partner] = payment;\n\t}\n\n\tfunction add_employee(address _employee, uint256 _amount) public onlyOwner {\n\t\trequire(_employee != address(0));\n\t\trequire(employee[_employee] != true, \"Employee already exists\");\n\t\trequire(revoked[_employee] != true, \"Revoked employee cannot be added\");\n\t\trequire(completed[_employee] != true, \"Completely vested employee cannot be added\");\n\t\trequire(_amount > 0);\n\t\temployee[_employee] = true;\n\t\tuint256 timenow = block.timestamp;\n\n\t\t// add timelocks to schedules\n\t\tfirst_schedule[_employee] = timenow.add(interval);\n\t\tsecond_schedule[_employee] = first_schedule[_employee].add(interval);\n\t\tthird_schedule[_employee] = second_schedule[_employee].add(interval);\n\t\tfourth_schedule[_employee] = third_schedule[_employee].add(interval);\n\t\tfifth_schedule[_employee] = fourth_schedule[_employee].add(interval);\n\t\tsixth_schedule[_employee] = fifth_schedule[_employee].add(interval);\n\t\tseventh_schedule[_employee] = sixth_schedule[_employee].add(interval);\n\t\teighth_schedule[_employee] = seventh_schedule[_employee].add(interval);\n\t\tninth_schedule[_employee] = eighth_schedule[_employee].add(interval);\n\t\ttenth_schedule[_employee] = ninth_schedule[_employee].add(interval);\n\t\televenth_schedule[_employee] = tenth_schedule[_employee].add(interval);\n\t\ttwelfth_schedule[_employee] = eleventh_schedule[_employee].add(interval);\n\n\t\t//split amount into the schedules\n\t\tuint256 payment = _amount.div(12);\n\t\tfirst_payment[_employee] = payment;\n\t\tsecond_payment[_employee] = payment;\n\t\tthird_payment[_employee] = payment;\n\t\tfourth_payment[_employee] = payment;\n\t\tfifth_payment[_employee] = payment;\n\t\tsixth_payment[_employee] = payment;\n\t\tseventh_payment[_employee] = payment;\n\t\teighth_payment[_employee] = payment;\n\t\tninth_payment[_employee] = payment;\n\t\ttenth_payment[_employee] = payment;\n\t\televenth_payment[_employee] = payment;\n\t\ttwelfth_payment[_employee] = payment;\n\t}\n\n\tfunction revoke_employee(address _employee) public onlyOwner {\n\t\trequire(_employee != address(0));\n\t\trequire(partners[_employee] != true, \"Partners cannot be revoked\");\n\t\trequire(employee[_employee] == true, \"Only active employee can be revoked\");\n\t\trequire(revoked[_employee] != true, \"Employee has already been revoked\");\n\n\t\temployee[_employee] = false;\n\t\trevoked[_employee] = true;\n\n\t\tfirst_payment[_employee] = 0;\n\t\tsecond_payment[_employee] = 0;\n\t\tthird_payment[_employee] = 0;\n\t\tfourth_payment[_employee] = 0;\n\t\tfifth_payment[_employee] = 0;\n\t\tsixth_payment[_employee] = 0;\n\t\tseventh_payment[_employee] = 0;\n\t\teighth_payment[_employee] = 0;\n\t\tninth_payment[_employee] = 0;\n\t\ttenth_payment[_employee] = 0;\n\t\televenth_payment[_employee] = 0;\n\t\ttwelfth_payment[_employee] = 0;\n\t}\n\n\tfunction withdraw() public returns (bool) {\n\t\trequire(employee[_msgSender()] == true, \"You must be an active employee/partner to withdraw\");\n\t\trequire(revoked[_msgSender()] != true, \"Your membership has been revoked\");\n\t\t\n\t\tif (block.timestamp > twelfth_schedule[_msgSender()] && twelfth_payment[_msgSender()] > 0) {\n\t\t\trequire(kyo.transfer(_msgSender(), twelfth_payment[_msgSender()]), \"Transfer failed.\");\n\t\t\ttwelfth_payment[_msgSender()] = 0;\n\t\t\treturn true;\n\t\t} else if (block.timestamp > eleventh_schedule[_msgSender()] && eleventh_payment[_msgSender()] > 0) {\n\t\t\trequire(kyo.transfer(_msgSender(), eleventh_payment[_msgSender()]), \"Transfer failed.\");\n\t\t\televenth_payment[_msgSender()] = 0;\n\t\t\treturn true;\n\t\t} else if (block.timestamp > tenth_schedule[_msgSender()] && tenth_payment[_msgSender()] > 0) {\n\t\t\trequire(kyo.transfer(_msgSender(), tenth_payment[_msgSender()]), \"Transfer failed.\");\n\t\t\ttenth_payment[_msgSender()] = 0;\n\t\t\treturn true;\n\t\t} else if (block.timestamp > ninth_schedule[_msgSender()] && ninth_payment[_msgSender()] > 0) {\n\t\t\trequire(kyo.transfer(_msgSender(), ninth_payment[_msgSender()]), \"Transfer failed.\");\n\t\t\tninth_payment[_msgSender()] = 0;\n\t\t\treturn true;\n\t\t} else if (block.timestamp > eighth_schedule[_msgSender()] && eighth_payment[_msgSender()] > 0) {\n\t\t\trequire(kyo.transfer(_msgSender(), eighth_payment[_msgSender()]), \"Transfer failed.\");\n\t\t\teighth_payment[_msgSender()] = 0;\n\t\t\treturn true;\n\t\t} else if (block.timestamp > seventh_schedule[_msgSender()] && seventh_payment[_msgSender()] > 0) {\n\t\t\trequire(kyo.transfer(_msgSender(), seventh_payment[_msgSender()]), \"Transfer failed.\");\n\t\t\tseventh_payment[_msgSender()] = 0;\n\t\t\treturn true;\n\t\t} else if (block.timestamp > sixth_schedule[_msgSender()] && sixth_payment[_msgSender()] > 0) {\n\t\t\trequire(kyo.transfer(_msgSender(), sixth_payment[_msgSender()]), \"Transfer failed.\");\n\t\t\tsixth_payment[_msgSender()] = 0;\n\t\t\treturn true;\n\t\t} else if (block.timestamp > fifth_schedule[_msgSender()] && fifth_payment[_msgSender()] > 0) {\n\t\t\trequire(kyo.transfer(_msgSender(), fifth_payment[_msgSender()]), \"Transfer failed.\");\n\t\t\tfifth_payment[_msgSender()] = 0;\n\t\t\treturn true;\n\t\t} else if (block.timestamp > fourth_schedule[_msgSender()] && fourth_payment[_msgSender()] > 0) {\n\t\t\trequire(kyo.transfer(_msgSender(), fourth_payment[_msgSender()]), \"Transfer failed.\");\n\t\t\tfourth_payment[_msgSender()] = 0;\n\t\t\treturn true;\n\t\t} else if (block.timestamp > third_schedule[_msgSender()] && third_payment[_msgSender()] > 0) {\n\t\t\trequire(kyo.transfer(_msgSender(), third_payment[_msgSender()]), \"Transfer failed.\");\n\t\t\tthird_payment[_msgSender()] = 0;\n\t\t\treturn true;\n\t\t} else if (block.timestamp > second_schedule[_msgSender()] && second_payment[_msgSender()] > 0) {\n\t\t\trequire(kyo.transfer(_msgSender(), second_payment[_msgSender()]), \"Transfer failed.\");\n\t\t\tsecond_payment[_msgSender()] = 0;\n\t\t\treturn true;\n\t\t} else if (block.timestamp > first_schedule[_msgSender()] && first_payment[_msgSender()] > 0) {\n\t\t\trequire(kyo.transfer(_msgSender(), first_payment[_msgSender()]), \"Transfer failed.\");\n\t\t\tfirst_payment[_msgSender()] = 0;\n\t\t\treturn true;\n\t\t} else {\n\t\t\trequire(block.timestamp < 1, \"The next schedule is not due yet.\");\n\t\t}\n\t\treturn false;\n\t}\n\n\tfunction withdraw_remaining_balance() public onlyOwner {\n\t\tuint256 bal = kyo.balanceOf(address(this));\n\t\tkyo.transfer(_msgSender(), bal);\n\t}\n\n\tfunction current_time() public view returns (uint256) {\n\t\tuint256 time = block.timestamp;\n\t\treturn time;\n\t}\n\n\t//IERC20 implementations\n\tfunction allowance(address owner, address spender) external virtual override view returns (uint256) {}\n\tfunction approve(address spender, uint256 amount) external virtual override returns (bool) {}\n\tfunction balanceOf(address account) external virtual override view returns (uint256) {}\n\tfunction totalSupply() external virtual override view returns (uint256) {}\n\tfunction transfer(address recipient, uint256 amount) external virtual override returns (bool) {}\n\tfunction transferFrom(address sender, address recipient, uint256 amount) external virtual override returns (bool) {}\n}",
  "sourcePath": "/home/aman/kyotoswap/kyotovesting/src/contracts/KyoVesting.sol",
  "compiler": {
    "name": "solc",
    "version": "0.8.10+commit.fc410830.Emscripten.clang"
  },
  "schemaVersion": "3.4.3",
  "updatedAt": "2021-11-27T03:53:01.890Z",
  "networkType": "ethereum",
  "devdoc": {
    "kind": "dev",
    "methods": {
      "allowance(address,address)": {
        "details": "Returns the remaining number of tokens that `spender` will be allowed to spend on behalf of `owner` through {transferFrom}. This is zero by default. This value changes when {approve} or {transferFrom} are called."
      },
      "approve(address,uint256)": {
        "details": "Sets `amount` as the allowance of `spender` over the caller's tokens. Returns a boolean value indicating whether the operation succeeded. IMPORTANT: Beware that changing an allowance with this method brings the risk that someone may use both the old and the new allowance by unfortunate transaction ordering. One possible solution to mitigate this race condition is to first reduce the spender's allowance to 0 and set the desired value afterwards: https://github.com/ethereum/EIPs/issues/20#issuecomment-263524729 Emits an {Approval} event."
      },
      "balanceOf(address)": {
        "details": "Returns the amount of tokens owned by `account`."
      },
      "owner()": {
        "details": "Returns the address of the current owner."
      },
      "renounceOwnership()": {
        "details": "Leaves the contract without owner. It will not be possible to call `onlyOwner` functions anymore. Can only be called by the current owner. NOTE: Renouncing ownership will leave the contract without an owner, thereby removing any functionality that is only available to the owner."
      },
      "totalSupply()": {
        "details": "Returns the amount of tokens in existence."
      },
      "transfer(address,uint256)": {
        "details": "Moves `amount` tokens from the caller's account to `recipient`. Returns a boolean value indicating whether the operation succeeded. Emits a {Transfer} event."
      },
      "transferFrom(address,address,uint256)": {
        "details": "Moves `amount` tokens from `sender` to `recipient` using the allowance mechanism. `amount` is then deducted from the caller's allowance. Returns a boolean value indicating whether the operation succeeded. Emits a {Transfer} event."
      },
      "transferOwnership(address)": {
        "details": "Transfers ownership of the contract to a new account (`newOwner`). Can only be called by the current owner."
      }
    },
    "version": 1
  },
  "userdoc": {
    "kind": "user",
    "methods": {},
    "version": 1
  }
}